:1000000045C0000060C000005EC000005CC0000091
:100010005AC0000058C0000056C0000054C0000084
:1000200052C0000050C000004EC000004CC0000094
:100030004AC0000048C0000046C0000044C00000A4
:1000400042C0000040C000003EC000003CC00000B4
:100050003AC0000038C0000036C0000034C00000C4
:1000600032C0000030C000002EC000002CC00000D4
:100070002AC0000028C0000026C0000024C00000E4
:1000800022C0000020C000001EC0000011241FBEBE
:10009000CFEFD0E4DEBFCDBF11E0A0E0B1E0ECE3F4
:1000A000F3E000E00BBF02C007900D92A430B1074F
:1000B000D9F721E0A4E0B1E001C01D92A830B20759
:1000C000E1F715D039C19CCFFC010FB6F8946091CF
:1000D00004017091050180910601909107010FBE06
:1000E000309721F060837183828393830895CF9347
:1000F000DF93CDB7DEB72D970FB6F894DEBF0FBEF6
:10010000CDBF80E090E0E0DFAFD081E290E0FC0185
:10011000108280E290E02FEFFC01208384E290E0E7
:100120002FEFFC01208385E290E0FC0110821A820F
:10013000198218C096D08F739078992324F4019770
:10014000806C9F6F0196482F9E012B5F3F4F8981E6
:100150009A81820F931FFC01408389819A810196C5
:100160009A83898389819A81079724F31B8281E08E
:100170008C8380E290E0FC018081882F90E0817088
:100180009927892BB9F48C818823A9F481E08C8389
:100190008B81882F90E09E012B5F3F4F820F931F32
:1001A000FC018081882321F08B818F5F8B8303C0CA
:1001B0001B8201C01C8285E290E02B81222F30E05F
:1001C000AE014B5F5F4F240F351FF9012081FC0109
:1001D0002083CFCF8F929F92AF92BF92CF92DF9228
:1001E000EF92FF92CF93DF93EC01688179818A814E
:1001F0009B81611571058105910521F464E279ED1A
:100200008BE597E02DE133EF41E050E038D0490134
:100210005A019B01AC01A7EAB1E44DD06B017C010E
:10022000ACEEB4EFA501940152D0DC01CB018C0DF2
:100230009D1DAE1DBF1DB7FF03C00197A109B048AA
:1002400088839983AA83BB839F77DF91CF91FF90A7
:10025000EF90DF90CF90BF90AF909F908F900895D8
:10026000B9CF80E091E0B6CFA0E0B0E0809300018C
:1002700090930101A0930201B09303010895052E0C
:1002800097FB16F400940FD057FD05D024D007FC3F
:1002900002D046F408C050954095309521953F4FC7
:1002A0004F4F5F4F089590958095709561957F4F62
:1002B0008F4F9F4F089531D0A59F900DB49F900D03
:1002C000A49F800D911D11240895B7FFF4CFF3DF93
:1002D000821B930B0895A1E21A2EAA1BBB1BFD01E2
:1002E0000DC0AA1FBB1FEE1FFF1FA217B307E40715
:1002F000F50720F0A21BB30BE40BF50B661F771F6D
:10030000881F991F1A9469F760957095809590954C
:100310009B01AC01BD01CF010895A29FB001B39F25
:10032000C001A39F700D811D1124911DB29F700DFE
:0C033000811D1124911D0895F894FFCF49
:04033C0001000000BC
:00000001FF
