:1000000045C0000060C000005EC000005CC0000091
:100010005AC0000058C0000056C0000054C0000084
:1000200052C0000050C000004EC000004CC0000094
:100030004AC00000BDC0000046C0000044C000002F
:1000400042C0000040C000003EC000003CC00000B4
:100050003AC0000038C0000036C0000034C00000C4
:1000600032C0000030C000002EC000002CC00000D4
:100070002AC0000028C0000026C0000024C00000E4
:1000800022C0000020C000001EC0000011241FBEBE
:10009000CFEFD0E4DEBFCDBF11E0A0E0B1E0E2EEF3
:1000A000F3E000E00BBF02C007900D92A631B1074C
:1000B000D9F721E0A6E1B1E001C01D92A832B20754
:1000C000E1F73AD18CC19CCF181619065CF008955F
:1000D000000021503109E1F74F5F5F4F841795070A
:1000E00019F4089540E050E027E033E0F1CF5E9846
:1000F00088B95F9A00005F9882E090E0E5CF0895AC
:1001000081E0F5CF0895813118F48158F0CF08953A
:100110008155EDCF089584E690E0D6DF88E3E7DFF0
:1001200086E0E5DF8FE0E3DF81E0E1DF8AE090E079
:10013000CBCF08955E9A88B95F9A00005F9881E0FE
:1001400090E0C2CF089560931201709313018093E1
:1001500014019093150160932301709324018093FF
:1001600025019093260108958BE0809381008DE70F
:1001700090E0909389008093880082E080936F00E4
:1001800010928500109284008091120190911301C9
:10019000A0911401B0911501809323019093240143
:1001A000A0932501B09326018FB780688FBF089573
:1001B0001F920F920FB60F9211248F939F93AF93BC
:1001C000BF938091230190912401A0912501B091CA
:1001D00026010197A109B10980932301909324017D
:1001E000A0932501B0932601892B8A2B8B2B99F4A0
:1001F00081E0809327018091120190911301A091D9
:100200001401B09115018093230190932401A093D0
:100210002501B0932601BF91AF919F918F910F90CF
:100220000FBE0F901F9018958FEE82B90000009BB3
:1002300029C0019B29C0029B29C0039B29C08FEDC7
:1002400082B90000009B26C0019B26C0029B26C0ED
:10025000039B26C08FEB82B90000009B23C0019B4B
:1002600023C0029B23C0039B23C08FE782B90000F9
:10027000009B20C0019B20C0029B20C0039B20C08C
:1002800080E0089581E3089584E3089587E3089565
:100290008AE2089582E3089585E3089588E3089546
:1002A00080E3089583E3089586E3089589E308953C
:1002B00083E2089581E4089582E4089583E4089533
:1002C00084E408950F931F93CF93AEDF811103C091
:1002D0001092220116C090912201891791F080930B
:1002E000220190912101E92FF0E0EF5FFE4F808322
:1002F0009F5F903118F49093210107C01092210163
:1003000004C080910001882391F001E011E0C1E078
:100310008C2FF9DEF80181918F010CDFCF5FC131A5
:10032000B9F7809121018F5FEEDE1092000180E02D
:10033000CF911F910F91089580EF81B98FE080B91F
:100340008FEF84B915B887B918B88AB91BB8E6E138
:10035000F1E0808381E090E0A0E0B0E081839283CF
:10036000A383B48385839683A783B08782E691E0D5
:1003700092878187D0DEC4DE6AEF70E080E090E093
:10038000E2DEF2DEC6E1D1E04D815E816F817885EB
:1003900089819A81AB81BC81481759076A077B071D
:1003A00061F48881E985FA85082E000C990B09957E
:1003B00088831D821E821F8218868D819E81AF8157
:1003C000B8850196A11DB11D8D839E83AF83B8872B
:1003D000809127018823E1F310922701D5CFF8946B
:0203E000FFCF4D
:1003E20001436F6E67726174756C6174696F6E73CD
:0603F200210001000000E3
:00000001FF
