S01B0000616368656E3131355F6C6162385F70617274312E7372656366
S113000045C000004BC0000049C0000047C00000CC
S113001045C0000043C0000041C000003FC00000D4
S11300203DC000003BC0000039C0000037C00000E4
S113003035C0000033C0000031C000002FC00000F4
S11300402DC000002BC0000029C0000027C0000004
S113005025C0000023C0000021C000001FC0000014
S11300601DC000001BC0000019C0000017C0000024
S113007015C0000013C0000011C000000FC0000034
S11300800DC000000BC0000009C0000011241FBEF9
S1130090CFEFD0E4DEBFCDBFC1D063C1B1CFCF932A
S11300A0DF93CDB7DEB781E01AD00000DF91CF91A6
S11300B00895CF93DF93CDB7DEB784E690E06DD09B
S11300C088E30DD086E00BD08FE009D081E007D023
S11300D08AE090E062D00000DF91CF910895CF9341
S11300E0DF931F92CDB7DEB789838BE290E02BE2DA
S11300F030E0F90120812F7BFC01208388E290E02D
S11301002981FC0120838BE290E02BE230E0F901AD
S113011020812068FC01208300008BE290E02BE228
S113012030E0F90120812F77FC01208382E090E008
S113013034D000000F90DF91CF910895CF93DF93D7
S11301401F92CDB7DEB789838BE290E02BE230E0DB
S1130150F90120812064FC01208388E290E0298158
S1130160FC0120838BE290E02BE230E0F901208156
S11301702068FC01208300008BE290E02BE230E059
S1130180F90120812F77FC01208381E090E005D0E4
S113019000000F90DF91CF910895CF93DF9300D0AB
S11301A000D000D0CDB7DEB79E838D831A8219822A
S11301B013C01C821B8206C000008B819C810196A7
S11301C09C838B838B819C8187309340ACF38981A2
S11301D09A8101969A83898329813A818D819E81AE
S11301E02817390734F3000026960FB6F894DEBFBB
S11301F00FBECDBFDF91CF910895CF93DF93CDB7DD
S1130200DEB78AE790E02AE730E0F9012081206E2A
S1130210FC0120830000DF91CF910895CF93DF93F9
S1130220CDB7DEB728970FB6F894DEBF0FBECDBFAB
S1130230E4DF81E290E0FC01108280E290E02FEFA5
S1130240FC01208384E290E02FEFFC01208385E20F
S113025090E0FC0110828AE290E023E0FC0120831C
S11302608BE290E0FC01108224DF88E790E0FC013F
S1130270808191819A83898385E290E02981FC01C0
S113028020838BE290E029813A81232F330F330BB3
S1130290322F298123232370FC01208300DF84E093
S11302A08B831CC08B81282F30E089819A814AE09E
S11302B050E0BA012FD0482FCE010496820F931F2D
S11302C0FC01408389819A812AE030E0B90122D07F
S11302D0CB019A8389838B8181508B8389819A8115
S11302E018161906FCF28B818F5F8B830FC08B81EC
S11302F0882F90E09E012C5F3F4F820F931FFC01DB
S11303008081805D1BDF8B818F5F8B838B81853048
S113031070F3ABCF97FB072E16F4009406D077FD4D
S113032008D00BD007FC05D03EF4909581959F4FE3
S11303300895709561957F4F0895AA1BBB1B51E1E9
S113034007C0AA1FBB1FA617B70710F0A61BB70B41
S1130350881F991F5A95A9F780959095BC01CD01E6
S10903600895F894FFCF9C
S9030000FC
