S01C0000616368656E3131355F6C616231305F70617274342E7372656339
S113000045C0000060C000005EC000005CC000008D
S11300105AC0000058C0000056C0000054C0000080
S113002052C0000050C000004EC000004CC0000090
S11300304AC000006DC0000046C0000044C000007B
S113004042C0000040C000003EC000003CC00000B0
S11300503AC0000038C0000036C0000034C00000C0
S113006032C0000030C000002EC000002CC00000D0
S11300702AC0000028C0000026C0000024C00000E0
S113008022C0000020C000001EC0000011241FBEBA
S1130090CFEFD0E4DEBFCDBF11E0A0E0B1E0E0EAF5
S11300A0F2E000E00BBF02C007900D92A430B1074C
S11300B0D9F721E0A4E0B1E001C01D92A930B20754
S11300C0E1F773D0EBC09CCF8BE0809381008DE788
S11300D090E0909389008093880082E080936F0081
S11300E0109285001092840080910001909101018A
S11300F0A0910201B0910301809304019093050142
S1130100A0930601B09307018FB780688FBF08954D
S11301101F920F920FB60F9211248F939F93AF9358
S1130120BF938091040190910501A0910601B091C3
S113013007010197A109B109809304019093050176
S1130140A0930601B0930701892B8A2B8B2B99F47A
S113015081E0809308018091000190910101A091B8
S11301600201B09103018093040190930501A093CF
S11301700601B0930701BF91AF919F918F910F90AA
S11301800FBE0F901F9018956093000170930101AA
S1130190809302019093030160930401709305011D
S11301A08093060190930701089511B88FEF80B9E9
S11301B08FE184B915B861E070E080E090E0E4DF9D
S11301C083DF15B848EE53E02CE231E062E070E0E2
S11301D0D0E0C1E010E0A9E0B0E0E1E0F0E000E050
S11301E06894EE24E4F86894FF24F3F821C080B105
S11301F090E08095909583709927039779F0009902
S113020004C03196A4E6B0E013C001990CC0E230FA
S1130210F10560F03197A4E6B0E00AC0A4E6B0E0CE
S1130220E1E0F0E005C0A4E6B0E002C0A4E6B0E07E
S1130230029908C06150710959F4111106C0BF0137
S11302401E2D06C061E070E003C061E070E0102F75
S11302502150310949F4C43021F0CC0F2CE231E0B3
S113026003C02CE231E0C1E04150510949F4D111FD
S113027004C048EE53E0DF2D03C048EE53E0D02F16
S1130280812F8C2B8D2B85B9809108018823E1F374
S113029000930801119709F4AACFCACFF894FFCFAD
S10702A00100000055
S9030000FC
