S01B0000616368656E3131355F6C6162375F70617274322E7372656366
S113000045C0000060C000005EC000005CC000008D
S11300105AC0000058C0000056C0000054C0000080
S113002052C0000050C000004EC000004CC0000090
S11300304AC0000084C1000046C0000044C0000063
S113004042C0000040C000003EC000003CC00000B0
S11300503AC0000038C0000036C0000034C00000C0
S113006032C0000030C000002EC000002CC00000D0
S11300702AC0000028C0000026C0000024C00000E0
S113008022C0000020C000001EC0000011241FBEBA
S1130090CFEFD0E4DEBFCDBF11E0A0E0B1E0EAECE9
S11300A0F5E000E00BBF02C007900D92AE30B1073F
S11300B0D9F721E0AEE0B1E001C01D92A331B2074F
S11300C0E1F7CCD180C29CCFCF93DF93CDB7DEB71D
S11300D081E01AD00000DF91CF910895CF93DF9390
S11300E0CDB7DEB784E690E0ACD088E30DD086E0EF
S11300F00BD08FE009D081E007D08AE090E0A1D056
S11301000000DF91CF910895CF93DF931F92CDB775
S1130110DEB789838BE290E02BE230E0F9012081A5
S11301202F7BFC01208388E290E02981FC0120835D
S11301308BE290E02BE230E0F90120812068FC01A1
S1130140208300008BE290E02BE230E0F901208173
S11301502F77FC01208382E090E073D000000F90A1
S1130160DF91CF910895CF93DF931F92CDB7DEB780
S113017089838BE290E02BE230E0F9012081206456
S1130180FC01208388E290E02981FC0120838BE23A
S113019090E02BE230E0F90120812068FC0120830B
S11301A000008BE290E02BE230E0F90120812F7710
S11301B0FC01208381E090E044D000000F90DF91A7
S11301C0CF910895CF93DF9300D000D0CDB7DEB7A1
S11301D08A837C836B8378DF8A8189830FC08981DA
S11301E091E0980F998318D08B819C819C012F5F9B
S11301F03F4F3C832B83FC018081B5DF8B819C8145
S1130200FC018081882359F700000F900F900F9014
S11302100F90DF91CF910895CF93DF931F92CDB7C5
S1130220DEB789838981813120F4898181586CDF2B
S113023003C08981815568DF00000F90DF91CF9161
S11302400895CF93DF9300D000D000D0CDB7DEB7B0
S11302509E838D831A82198213C01C821B8206C05E
S113026000008B819C8101969C838B838B819C8174
S113027087309340ACF389819A8101969A8389836C
S113028029813A818D819E812817390734F3000032
S113029026960FB6F894DEBF0FBECDBFDF91CF9187
S11302A00895CF93DF93CDB7DEB781E890E02BE0DC
S11302B0FC01208388E890E02DE730E0FC013183E5
S11302C020838FE690E022E0FC01208384E890E024
S11302D0FC01118210828091000190910101A09192
S11302E00201B091030180930F0190931001A09338
S11302F01101B09312018FE590E02FE530E0F90190
S113030020812068FC0120830000DF91CF910895B3
S1130310CF93DF93CDB7DEB781E890E0FC01108284
S11303200000DF91CF910895CF93DF93CDB7DEB76F
S113033081E080930E010000DF91CF9108951F9218
S11303400F9200905F000F92112400905B000F92B7
S11303502F933F934F935F936F937F938F939F93C9
S1130360AF93BF93EF93FF93CF93DF93CDB7DEB7F4
S113037080910F0190911001A0911101B09112018F
S11303800197A109B10980930F0190931001A093E3
S11303901101B093120180910F0190911001A0916D
S11303A01101B0911201892B8A2B8B2B89F4BCDFAC
S11303B08091000190910101A0910201B09103018B
S11303C080930F0190931001A0931101B093120137
S11303D00000DF91CF91FF91EF91BF91AF919F9179
S11303E08F917F916F915F914F913F912F910F90DA
S11303F000925B000F9000925F000F901F90189581
S1130400CF93DF9300D000D0CDB7DEB769837A8372
S11304108B839C8389819A81AB81BC818093000109
S113042090930101A0930201B09303018091000114
S113043090910101A0910201B091030180930F01F9
S113044090931001A0931101B093120100000F903A
S11304500F900F900F90DF91CF910895CF93DF937A
S113046000D000D01F92CDB7DEB781E290E0FC014E
S1130470108280E290E02FEFFC01208384E290E080
S11304802FEFFC01208385E290E0FC01108287E2DB
S113049090E02FEFFC01208388E290E0FC011082C1
S11304A08AE290E02FEFFC0120838BE290E0FC01D4
S11304B0108214DE198285E08A838A818B836CE240
S11304C071E080E090E09CDFECDE1C821D82FCDDAC
S11304D08A81805D48DE8C81882359F080E290E037
S11304E0FC018081882F90E081709927892B09F085
S11304F01C828D818823A9F08C81882309F061C036
S113050080E290E0FC018081882F90E0817099273F
S1130510892B09F056C081E08C831D82F9DEC1DE8F
S113052016C08981823020F489818F5F898301C05C
S1130530198285E290E02981422F50E021E030E0E9
S113054002C0220F331F4A95E2F7FC01208332C018
S11305508C81882379F580E290E0FC018081882FEA
S113056090E081709927892B29F58981813021F4C4
S11305708A818F5F8A8306C08A81882319F08A81E1
S113058081508A8381E08D8381E08C839B818A8181
S1130590981771F08A818B8397DD8B818A3029F4D7
S11305A064E071E081E00EDE03C08B81805DDBDD01
S11305B0AFDE04C080910E01882351F210920E0127
S10D05C08ACF000088CFF894FFCF23
S11105CA01000000596F7520776F6E2100004C
S9030000FC
