:100000004CC0000069C0000067C0000065C000006F
:1000100063C0000061C000005FC000005DC0000060
:100020005BC0000059C0000057C0000055C0000070
:1000300053C0000068C300004FC000004DC0000066
:100040004BC0000049C0000047C0000045C0000090
:1000500043C0000041C000003FC000003DC00000A0
:100060003BC0000039C0000037C0000035C00000B0
:1000700033C0000031C000002FC000002DC00000C0
:100080002BC0000029C0000027C00000A10BA70B57
:10009000AD0BB30BBC0BC40BCA0B11241FBECFEFAF
:1000A000D0E4DEBFCDBF11E0A0E0B1E0E2EDF0E2D0
:1000B00000E00BBF02C007900D92AA30B107D9F73C
:1000C00024E0AAE0B1E001C01D92A432B207E1F73A
:1000D0000E94560E0C94671093CF1F93CF93DF931B
:1000E00000D0CDB7DEB789836A8382E290E022E256
:1000F00030E0F90120812D7FFC0120838A81882353
:1001000051F082E290E022E230E0F90120812860A3
:10011000FC01208309C082E290E022E230E0F90194
:100120002081277FFC01208310E03CC08981882F3B
:1001300090E0212F30E047E050E0BA01621B730BE2
:100140009B0102C0959587952A95E2F781709927C2
:10015000892B51F082E290E022E230E0F901208127
:100160002061FC01208309C082E290E022E230E0BD
:10017000F90120812F7EFC01208382E290E022E2BF
:1001800030E0F90120812062FC01208382E290E0CE
:1001900022E230E0F90120812F7DFC012083812FB4
:1001A00011E0180F183010F282E290E022E230E005
:1001B000F90120812260FC01208300000F900F9044
:1001C000DF91CF911F910895CF93DF931F92CDB709
:1001D000DEB7898360E0898180DF00000F90DF91C6
:1001E000CF910895CF93DF931F92CDB7DEB7898368
:1001F00061E0898172DF00000F90DF91CF91089557
:100200000F931F93CF93DF93CDB7DEB76C970FB6E5
:10021000F894DEBF0FBECDBF81E290E021E230E076
:10022000F90120812260FC01208381E290E021E23B
:1002300030E0F90120812460FC01208381E290E01C
:1002400021E230E0F90120812860FC01208381E275
:1002500090E021E230E0F90120812061FC0120835F
:1002600081E290E021E230E0F90120812062FC018E
:10027000208382E290E022E230E0F90120812460D4
:10028000FC01208382E290E022E230E0F90120814B
:100290002260FC01208380E090E0A0E2B1E4898349
:1002A0009A83AB83BC8320E030E04AE753E4698162
:1002B0007A818B819C810E94FA0EDC01CB018B8BB1
:1002C0009C8BAD8BBE8B20E030E040E85FE36B8918
:1002D0007C898D899E890E94790E88232CF481E087
:1002E00090E0988F8F8B3FC020E03FEF4FE757E4BF
:1002F0006B897C898D899E890E94F60E18164CF5B3
:1003000020E030E040E251E469817A818B819C8178
:100310000E94FA0EDC01CB01BC01CD010E947D0ED2
:10032000DC01CB01988F8F8B0FC089E190E09A8F11
:10033000898F898D9A8D0197F1F79A8F898F8F898F
:10034000988D0197988F8F8B8F89988D892B69F75E
:1003500014C06B897C898D899E890E947D0EDC0189
:10036000CB01988F8F8B8F89988D9C8F8B8F8B8DE6
:100370009C8D0197F1F79C8F8B8F82E290E022E2B7
:1003800030E0F90120812B7FFC01208380E090E0A8
:10039000ACE8B2E48D839E83AF83B88720E030E081
:1003A0004AE753E46D817E818F8198850E94FA0E21
:1003B000DC01CB0189879A87AB87BC8720E030E0DE
:1003C00040E85FE369857A858B859C850E94790E7C
:1003D00088232CF481E090E09E878D873FC020E049
:1003E0003FEF4FE757E469857A858B859C850E94AE
:1003F000F60E18164CF520E030E040E251E46D8135
:100400007E818F8198850E94FA0EDC01CB01BC01B0
:10041000CD010E947D0EDC01CB019E878D870FC030
:1004200089E190E0988B8F878F8598890197F1F704
:10043000988B8F878D859E8501979E878D878D856B
:100440009E85892B69F714C069857A858B859C8583
:100450000E947D0EDC01CB019E878D878D859E8558
:100460009A8B898B89899A890197F1F79A8B898B65
:1004700082E290E022E230E0F90120812460FC0178
:10048000208382E290E022E230E0F90120812D7F9A
:10049000FC01208381E298DE83E196DE86E094DE33
:1004A00082EC92DE80E290DE89E08EDE80E88CDEF7
:1004B00080E48ADE00E010E004C080E093DE0F5F9D
:1004C0001F4F083FF1E01F07C0F388E07DDE8CE09E
:1004D0007BDE00006C960FB6F894DEBF0FBECDBF7A
:1004E000DF91CF911F910F9108950F931F93CF9399
:1004F000DF93CDB7DEB780E867DE80E465DE10927B
:1005000002031092030300E010E007C0C801865FF9
:100510009E4FFC0110820F5F1F4F083FF1E01F0745
:10052000A8F30000DF91CF911F910F910895CF9311
:10053000DF9300D000D01F92CDB7DEB78B836C83E2
:100540004D838C81869586958695882F90E044E52D
:10055000489F9001499F300D11248B81882F90E096
:10056000820F931F865F9E4F9A8389838D81882394
:10057000C9F089819A81FC018081482F8C81882F64
:1005800090E09C012770332781E090E002C0880F43
:10059000991F2A95E2F7842B282F89819A81FC01E3
:1005A000208319C089819A81FC018081482F8C8128
:1005B000882F90E09C012770332781E090E002C0F3
:1005C000880F991F2A95E2F780958423282F898127
:1005D0009A81FC01208300000F900F900F900F90E4
:1005E0000F90DF91CF9108950F931F93CF93DF93D7
:1005F000CDB7DEB780E8E8DD80E4E6DD00E010E0BE
:1006000008C0C801865F9E4FFC018081EBDD0F5F53
:100610001F4F083FF1E01F07A0F30000DF91CF91CB
:100620001F910F910895CF93DF9300D000D0CDB7E5
:10063000DEB769837A838B839C8389819A81AB81BE
:10064000BC818093040190930501A0930601B093AF
:1006500007018091040190910501A0910601B091DC
:1006600007018093050390930603A0930703B093BB
:10067000080300000F900F900F900F90DF91CF9123
:100680000895CF93DF93CDB7DEB781E890E02BE0FC
:10069000FC01208388E890E02DE730E0FC01318305
:1006A00020838FE690E022E0FC01208384E890E044
:1006B000FC01118210828091040190910501A091AA
:1006C0000601B09107018093050390930603A09360
:1006D0000703B09308038FE590E02FE530E0F901C0
:1006E00020812068FC0120830000DF91CF910895D4
:1006F000CF93DF93CDB7DEB781E080930403000092
:10070000DF91CF9108951F920F9200905F000F929A
:10071000112400905B000F922F933F934F935F93B0
:100720006F937F938F939F93AF93BF93EF93FF93B9
:10073000CF93DF93CDB7DEB7809105039091060389
:10074000A0910703B09108030197A109B109809313
:10075000050390930603A0930703B09308038091C9
:10076000050390910603A0910703B0910803892B1C
:100770008A2B8B2B89F4BCDF8091040190910501B9
:10078000A0910601B09107018093050390930603A1
:10079000A0930703B09308030000DF91CF91FF916E
:1007A000EF91BF91AF919F918F917F916F915F91E9
:1007B0004F913F912F910F9000925B000F9000920C
:1007C0005F000F901F901895CF93DF9300D0CDB7A7
:1007D000DEB789836A8300008FE390E0FC018081AB
:1007E000882F90E084709927892BB1F781E490E0FD
:1007F0002981222F30E0FC013183208380E490E0C6
:100800002A81FC0120838FE390E02FE330E0F9019F
:1008100020812F70FC0120838FE390E02FE330E0F4
:10082000F90120812460FC0120838FE390E02FE315
:1008300030E0F90120812260FC01208300000F904C
:100840000F90DF91CF910895CF93DF9300D0CDB774
:10085000DEB79A83898300008FE390E0FC018081FA
:10086000882F90E084709927892BB1F781E490E07C
:1008700029813A81FC01318320838FE390E02FE3CB
:1008800030E0F90120812160FC01208380E490E0C8
:10089000FC0180810F900F90DF91CF910895CF934D
:1008A000DF93CDB7DEB728970FB6F894DEBF0FBE43
:1008B000CDBF9E838D8378876F838D819E81FC0160
:1008C000208131818F819885FC0180819181820F07
:1008D000931F9A8389838D819E81FC0122813381BC
:1008E0008F819885FC0182819381820F931F9C8365
:1008F0008B8389819A81AB81BC81BC01CD01289613
:100900000FB6F894DEBF0FBECDBFDF91CF91089533
:10091000CF93DF9300D000D0CDB7DEB79C838B831D
:100920008B819C81FC01808191819A8389838B8159
:100930009C81FC018281938122273327281B390B5C
:100940008B819C81FC01318320838B819C81298157
:100950003A81FC013383228300000F900F900F90A7
:100960000F90DF91CF910895CF93DF9300D000D007
:10097000CDB7DEB79C838B838B819C81FC01828108
:1009800093819A8389838B819C81FC0180819181F1
:1009900022273327281B390B8B819C81FC01338351
:1009A00022838B819C8129813A81FC0131832083C0
:1009B00000000F900F900F900F90DF91CF9108954E
:1009C000CF93DF9300D000D000D0CDB7DEB79A83AD
:1009D00089834B835C836D837E8329813A818B81FC
:1009E0009C81AD81BE81F90180839183A283B38311
:1009F00089819A81FC011582148289819A8121E082
:100A000030E0FC013783268389819A81FC011186BD
:100A1000108689819A81FC011386128689819A81C8
:100A2000FC011586148689819A812FEF3FEFFC0126
:100A30003787268789819A8121E030E0FC01318B5C
:100A4000208B89819A812FEF3FEFFC01338B228B22
:100A500089819A8126960FB6F894DEBF0FBECDBF6E
:100A6000DF91CF910895CF93DF9300D000D000D0D5
:100A7000CDB7DEB79A8389834B835C836D837E8396
:100A800029813A818B819C81AD81BE81F90180836E
:100A90009183A283B38389819A812FEF3FEFFC0179
:100AA0003583248389819A81FC011782168289818A
:100AB0009A81FC011186108689819A81FC01138636
:100AC000128689819A81FC011586148689819A8112
:100AD00021E030E0FC013787268789819A8121E077
:100AE00030E0FC01318B208B89819A8121E030E05C
:100AF000FC01338B228B89819A8126960FB6F8945C
:100B0000DEBF0FBECDBFDF91CF910895CF93DF93AE
:100B100000D000D000D0CDB7DEB79A8389834B8355
:100B20005C836D837E8329813A818B819C81AD8139
:100B3000BE81F90180839183A283B38389819A81E5
:100B4000FC011582148289819A812FEF3FEFFC010D
:100B50003783268389819A81FC01118610868981D9
:100B60009A81FC011386128689819A81FC0115867F
:100B7000148689819A8121E030E0FC01378726873D
:100B800089819A81FC01118A108A89819A8122E0E7
:100B900030E0FC01338B228B89819A8126960FB637
:100BA000F894DEBF0FBECDBFDF91CF910895CF93F4
:100BB000DF9300D000D000D0CDB7DEB79A83898311
:100BC0004B835C836D837E8329813A818B819C81F9
:100BD000AD81BE81F90180839183A283B383898132
:100BE0009A81FC011582148289819A812FEF3FEF4F
:100BF000FC013783268389819A81FC011186108646
:100C000089819A81FC011386128689819A8121E06B
:100C100030E0FC013587248789819A81FC011786A1
:100C2000168689819A8121E030E0FC01318B208B8E
:100C300089819A812FEF3FEFFC01338B228B8981D1
:100C40009A8126960FB6F894DEBF0FBECDBFDF9116
:100C5000CF910895CF93DF9300D000D0CDB7DEB70A
:100C60009A8389837C836B838B819C810196880F17
:100C7000991F880F991F29813A81280F391F89816F
:100C80009A81B9010CDEDC01CB01BC01CD010F90D2
:100C90000F900F900F90DF91CF910895CF93DF9336
:100CA00000D0CDB7DEB79A83898389819A81FC0110
:100CB0008281938101979C0189819A81FC01338310
:100CC000228300000F900F90DF91CF910895CF9372
:100CD000DF9300D0CDB7DEB79A83898389819A816B
:100CE000FC018081918101969C0189819A81FC019E
:100CF0003183208300000F900F90DF91CF910895F2
:100D0000CF93DF9300D0CDB7DEB79A8389838981F3
:100D10009A81FC018081918101979C0189819A814E
:100D2000FC013183208300000F900F90DF91CF9161
:100D30000895CF93DF9300D000D0CDB7DEB79C836A
:100D40008B831A82198225C02B813C8189819A81EB
:100D50000196880F991F880F991F820F931FFC011E
:100D60008081918122273327281B390B4B815C819D
:100D700089819A810196880F991F880F991F840F86
:100D8000951FFC013183208389819A8101969A8382
:100D9000898389819A810497B8F200000F900F909F
:100DA0000F900F90DF91CF910895CF93DF9300D0F4
:100DB00000D0CDB7DEB79C838B831A82198211C015
:100DC00089819A810196880F991F880F991F2B811D
:100DD0003C81820F931F9CDD89819A8101969A83C1
:100DE000898389819A81049758F300000F900F90AE
:100DF0000F900F90DF91CF910895CF93DF9300D0A4
:100E000000D0CDB7DEB79C838B831A82198211C0C4
:100E100089819A810196880F991F880F991F2B81CC
:100E20003C81820F931FA0DD89819A8101969A836C
:100E3000898389819A81049758F300000F900F905D
:100E40000F900F90DF91CF910895CF93DF93CDB79F
:100E5000DEB7AF970FB6F894DEBF0FBECDBF9B8F46
:100E60008A8F0E94FC0F87709078992324F4019751
:100E7000886F9F6F01968E5F89838981882F90E0AC
:100E80009B838A8387E190E09D838C830E94FC0F83
:100E900083709078992324F401978C6F9F6F01964B
:100EA00081309105D9F08230910569F1892B09F0E3
:100EB0003FC09E01245E3F4F8A819B81AC81BD81F2
:100EC000AC01BD01C9017CDD84E1FE017C96DE013F
:100ED000169601900D928A95E1F73FC09E01245E1F
:100EE0003F4F8A819B81AC81BD81AC01BD01C901AD
:100EF000BADD84E1FE017C96DE01169601900D922A
:100F00008A95E1F72AC09E01245E3F4F8A819B812A
:100F1000AC81BD81AC01BD01C901F8DD84E1FE01F8
:100F20007C96DE01169601900D928A95E1F715C028
:100F30009E01245E3F4F8A819B81AC81BD81AC01C3
:100F4000BD01C90134DE84E1FE017C96DE01169606
:100F500001900D928A95E1F700000E94FC0F23E0BA
:100F600030E0B901D2D7009719F0019729F008C0F5
:100F7000CE0106961ADF04C0CE0106963EDF0000C1
:100F80000E94FC0F81709927892B19F0CE010696DB
:100F9000D0DE8A8D9B8D24E1FE013696DC01019026
:100FA0000D922A95E1F78A8D9B8DAF960FB6F89436
:100FB000DEBF0FBECDBFDF91CF910895CF93DF93FA
:100FC00000D000D0CDB7DEB79A8389837C836B8352
:100FD0008B819C81FC01608171818B819C81FC01F2
:100FE0008281938149815A81E5E1E69F9001E79FE3
:100FF000300D1124240F351F820F931FFC018081B7
:101000000F900F900F900F90DF91CF910895CF9395
:10101000DF9300D000D000D0CDB7DEB79C838B83A8
:101020007E836D831A82198217C02B813C8149818E
:101030005A8165E1649FC001659F900D1124280FBE
:10104000391F8D819E81820F931FFC01108289813F
:101050009A8101969A83898389819A810C972CF3CE
:10106000000026960FB6F894DEBF0FBECDBFDF910D
:10107000CF910895CF93DF9300D000D000D0CDB7AB
:10108000DEB79C838B837E836D831A82198218C09E
:101090002B813C8149815A8165E1649FC001659F34
:1010A000900D1124280F391F8D819E81820F931F6F
:1010B00021E0FC01208389819A8101969A838983AA
:1010C00089819A810C9724F3000026960FB6F89434
:1010D000DEBF0FBECDBFDF91CF910895CF93DF93D9
:1010E000CDB7DEB728970FB6F894DEBF0FBECDBFE1
:1010F0009E838D8378876F838F8198859A83898378
:1011000036C01C821B822AC089819A8101964D813A
:101110005E816B817C81E5E1E69F9001E79F300D68
:101120001124240F351F820F931FFC0160812D8134
:101130003E814B815C8175E1749FC001759F900D6C
:101140001124280F391F89819A81820F931FFC0176
:1011500060838B819C8101969C838B838B819C8196
:101160000C9794F289819A8101969A838983898167
:101170009A81019645972CF28D819E8164E170E001
:1011800046DF000028960FB6F894DEBF0FBECDBF35
:10119000DF91CF910895CF93DF9300D000D000D09E
:1011A000CDB7DEB79C838B837E836D831A821982D1
:1011B0001BC02B813C8149815A8165E1649FC0013C
:1011C000659F900D1124280F391F8D819E81820FFC
:1011D000931FFC018081882311F480E00AC089817B
:1011E0009A8101969A83898389819A810C970CF35D
:1011F00081E026960FB6F894DEBF0FBECDBFDF911B
:10120000CF910895CF93DF9300D000D0CDB7DEB754
:101210009A8389837C836B838B819C81FC01808191
:1012200091819923C4F08B819C81FC018081918103
:101230000C978CF48B819C81FC0182819381992392
:1012400054F08B819C81FC018281938145971CF431
:1012500081E090E002C080E090E00F900F900F904E
:101260000F90DF91CF910895CF93DF93CDB7DEB785
:101270002A970FB6F894DEBF0FBECDBF98878F8335
:101280007A8769871A82198225C029813A818985DE
:101290009A85B901DFDCDC01CB018B839C83AD83B4
:1012A000BE839E012D5F3F4F8F819885B901AADFD4
:1012B000882349F09E012D5F3F4F8F819885B901AA
:1012C0007DDE882311F080E00AC089819A81019631
:1012D0009A83898389819A810497B8F281E02A965A
:1012E0000FB6F894DEBF0FBECDBFDF91CF9108954A
:1012F000CF93DF93CDB7DEB72A970FB6F894DEBF52
:101300000FBECDBF98878F837A8769871A8219822B
:1013100031C029813A8189859A85B9019BDCDC013C
:10132000CB018B839C83AD83BE838D819E811816F8
:10133000190614F081E023C08D819E8101979E8360
:101340008D839E012D5F3F4F8F819885B9015ADFB4
:10135000882359F09E012D5F3F4F8F819885B901F9
:101360002DDE882311F081E00AC089819A810196DF
:101370009A83898389819A81049758F280E02A961A
:101380000FB6F894DEBF0FBECDBFDF91CF910895A9
:10139000CF93DF9300D000D0CDB7DEB79A83898397
:1013A0007C836B838B819C81C4DC2B813C81898114
:1013B0009A81B90159DF882321F48B819C81B9DCA2
:1013C00001C000000F900F900F900F90DF91CF9110
:1013D0000895CF93DF9300D000D0CDB7DEB79A83C6
:1013E00089837C836B838B819C81DFDC2B813C81B7
:1013F00089819A81B90138DF882321F48B819C810E
:10140000FCDC01C000000F900F900F900F90DF9157
:10141000CF910895CF93DF9300D000D0CDB7DEB742
:101420009A8389837C836B838B819C81E6DC2B810F
:101430003C8189819A81B90117DF882321F48B814E
:101440009C81B3DC01C000000F900F900F900F90B3
:10145000DF91CF910895CF93DF9300D000D0CDB727
:10146000DEB79A8389837C836B838B819C812FDC9D
:101470002B813C8189819A81B901F6DE882321F490
:101480008B819C813DDC01C000000F900F900F907C
:101490000F90DF91CF910895CF93DF9300D000D0CC
:1014A000CDB7DEB79A8389837C836B838B819C81E4
:1014B00027DC2B813C8189819A81B901D5DE882383
:1014C00021F48B819C8103DC01C000000F900F9000
:1014D0000F900F90DF91CF910895CF93DF93CDB709
:1014E000DEB72A970FB6F894DEBF0FBECDBF988740
:1014F0008F837A8769871A8219822DC029813A8160
:1015000089859A85B901A6DBDC01CB018B839C839D
:10151000AD83BE839E012D5F3F4F8F819885B901BA
:1015200071DE882399F06B817C818D819E814F8152
:101530005885E5E1E69F9001E79F300D1124240FC7
:10154000351F820F931F21E0FC01208389819A813E
:1015500001969A83898389819A81049778F20000A1
:101560002A960FB6F894DEBF0FBECDBFDF91CF91A4
:101570000895CF93DF9300D01F92CDB7DEB78B8352
:101580008B81809322041A8219828B81882F90E0AC
:101590008130910561F08230910561F0892B09F06D
:1015A00017C089819A8150D98093230411C0109269
:1015B00022040EC089819A8147D9982F80912304F3
:1015C000981728F480912304682F80E0FDD800004C
:1015D00000000F900F900F90DF91CF910895CF935F
:1015E000DF93CDB7DEB72A970FB6F894DEBF0FBEF4
:1015F000CDBF9E838D8378876F835A8749871A82F0
:10160000198223C01C821B8217C039858D81982FB7
:10161000990F990F8981292F280F8F81982F990F62
:10162000990F8B81890F432F622F0E9497028B8124
:101630009C8101969C838B838B819C8104972CF3E6
:1016400089819A8101969A83898389819A810497F5
:10165000CCF200002A960FB6F894DEBF0FBECDBFC5
:10166000DF91CF910895CF93DF93CDB7DEB7C1550A
:10167000D1090FB6F894DEBF0FBECDBF8AE090E06F
:101680009C8F8B8F8091090390910A03019790930F
:101690000A03809309038091090390910A031816A5
:1016A00019060CF4F8C280910B03882F90E0823069
:1016B000910509F406C1833091052CF4009779F067
:1016C000019729F1A1C18430910509F46DC18430DD
:1016D00091050CF400C1059709F48CC195C1CE01A8
:1016E000CE96B3DB84E1FE01FE96ACE0B3E0019060
:1016F0000D928A95E1F7109223048B8D9C8D909327
:101700000A038093090381E080930B037DC189E282
:1017100090E0FC01808180958D8F8D8D882F90E0E9
:10172000092E000CAA0BBB0B41E050E026E030E094
:10173000841B950B2817390770F18A5B9F4FFC01BA
:10174000F7C36CE073E080E293E085DE24C06CE0D8
:1017500073E080E293E01CDE1EC06CE073E080E288
:1017600093E058DE18C06CE073E080E293E094DE12
:1017700012C08CE093E092DA6CE073E080E293E0D8
:10178000B7DD8823B1F307C06CE073E080E293E03B
:1017900020DE01C000006CE073E080E293E0A8DD91
:1017A000882309F478C06CE073E080E293E05CDDAC
:1017B000882309F462C06CE073E080E293E08DDE80
:1017C00082E080930B031A82198221C089819A8159
:1017D000BC0180E293E0DFDC8823A1F089819A815B
:1017E00090931D0480931C0486E08093080183E09D
:1017F00080930B03998180912304890F8F5F8093DD
:10180000230409C089819A8101969A8389838981F9
:101810009A814597D8F280911E0490911F040196F9
:1018200090931F0480931E041092210410922004B0
:10183000CE01CE960ADB84E1FE01FE96ACE0B3E079
:1018400001900D928A95E1F780910B03833071F03E
:101850002B8D3C8DC901880F991F880F991F820F0E
:10186000931F90930A0380930903CEC08B8D9C8DA8
:1018700090930A0380930903C7C084E080930B030D
:1018800010921D0410921C048B8D9C8D90930A0362
:1018900080930903B9C08CE093E000DA80912004C2
:1018A00090912104019690932104809320048B8DC4
:1018B0009C8D90930A038093090382E080930B032D
:1018C000A3C08B8D9C8D90930A038093090381E0C4
:1018D00080930B0399C08091080181508093080187
:1018E000809108018170882349F080911C049091B7
:1018F0001D04BC0180E293E08ADB08C080911C04D7
:1019000090911D04BC0180E293E0B4DB809108015A
:10191000882339F08B8D9C8D90930A038093090363
:1019200073C080911C0490911D04BC0180E293E07F
:10193000D5DB81E080930B031C821B821AC08B8154
:101940009C81BC0180E293E026DC882369F08B81D6
:101950009C8190931D0480931C0486E08093080171
:1019600083E080930B0309C08B819C8101969C834B
:101970008B838B819C81459710F380910B0383307F
:1019800061F02B8D3C8DC901880F991F820F931F29
:1019900090930A038093090337C08B8D9C8D90939D
:1019A0000A038093090330C080911C0490911D04A8
:1019B0004597ECF460E070E080E293E028DB60E0C3
:1019C00070E080E293E08ADB80911C0490911D041A
:1019D000019690931D0480931C048B8D9C8D909395
:1019E0000A038093090385E080930B030DC082E016
:1019F000C0DD0AC08B8D9C8D90930A0380930903F0
:101A000084E080930B0300000E94750280910B0319
:101A1000853009F51E821D8219C018861F820DC0EF
:101A20002F8138858D819E8141E050E0B901D7DD5D
:101A30008F819885019698878F838F8198854597A8
:101A40007CF38D819E8101969E838D838D819E8105
:101A50000C971CF31DC180910B03813009F08EC0DF
:101A60001A86198629C01C861B861DC089859A8501
:101A700045E1489F9001499F300D11248B859C853D
:101A8000820F931F805E9C4FFC018081482F50E0A5
:101A90002B853C8589859A85B901A1DD8B859C853F
:101AA00001969C878B878B859C854597FCF2898561
:101AB0009A8501969A87898789859A850C979CF2E1
:101AC0001E861D861DC08D859E85BC018CE093E021
:101AD000C1D8DC01CB018AAB9BABACABBDAB8CA955
:101AE0009DA9459744F42CA93DA98AA99BA941E049
:101AF00050E0B90174DD8D859E8501969E878D87A6
:101B00008D859E850497FCF284E1ECE0F3E0DE0134
:101B10005E9601900D928A95E1F703C0CE014E9634
:101B2000BDD8CE014E96BC0180E293E0E1DB882374
:101B3000A9F3188A1F861DC02F853889CE014E96BD
:101B4000B90188D8DC01CB018EAB9FABA8AFB9AF90
:101B500088AD99AD459744F428AD39AD8EA99FA9BC
:101B600041E050E0B9013BDD8F8598890196988B63
:101B70008F878F8598890497FCF28AC080910B0328
:101B8000823009F055C01A8A198A29C01C8A1B8A1A
:101B90001DC089899A8945E1489F9001499F300D70
:101BA00011248B899C89820F931F805E9C4FFC01BE
:101BB0008081482F50E02B893C8989899A89B90115
:101BC0000EDD8B899C8901969C8B8B8B8B899C89E4
:101BD0004597FCF289899A8901969A8B898B898924
:101BE0009A890C979CF21E8A1D8A1DC08D899E8938
:101BF000BC018CE093E02ED8DC01CB018AAF9BAF17
:101C0000ACAFBDAF8CAD9DAD459744F42CAD3DADB3
:101C10008AAD9BAD41E050E0B901E1DC8D899E8940
:101C200001969E8B8D8B8D899E890497FCF230C026
:101C3000188E1F8A29C01A8E198E1DC08F89988D03
:101C400045E1489F9001499F300D1124898D9A8D5F
:101C5000820F931F805E9C4FFC018081482F50E0D3
:101C6000298D3A8D8F89988DB901B9DC898D9A8D2E
:101C700001969A8F898F898D9A8D4597FCF28F896D
:101C8000988D0196988F8F8B8F89988D0C979CF2E9
:101C90000E94F40201C00000CF5ADF4F0FB6F89443
:101CA000DEBF0FBECDBFDF91CF910895CF93DF93FD
:101CB000CDB7DEB78AE290E02FEFFC01208389E206
:101CC00090E02FEFFC0120830E9400010E9475022A
:101CD0006AE070E080E090E00E9413030E944103FC
:101CE000C2DC0000809104038823E1F31092040316
:101CF000F7CF2FD008F481E0089557D088F09F5790
:101D000090F0B92F9927B751A0F0D1F0660F771F47
:101D1000881F991F1AF0BA95C9F712C0B13081F027
:101D20005ED0B1E008955BC0672F782F8827B85F39
:101D300039F0B93FCCF3869577956795B395D9F788
:101D40003EF490958095709561957F4F8F4F9F4F92
:101D50000895990F0008550FAA0BE0E8FEEF16163C
:101D60001706E807F907C0F012161306E407F5078F
:101D700098F0621B730B840B950B39F40A2661F003
:101D8000232B242B252B21F408950A2609F4A140A6
:101D9000A6958FEF811D811D089557FD9058440F22
:101DA000551F59F05F3F71F04795880F97FB991FBA
:101DB00061F09F3F79F08795089512161306140677
:101DC000551FF2CF4695F1DF08C016161706180604
:101DD000991FF1CF86957105610508940895E894DF
:101DE000BB2766277727CB0197F90895B2DF08F460
:101DF0008FEF08950BD078C069D028F06ED018F01E
:101E0000952309F05AC05FC01124EACFC6DFA0F3C2
:101E1000959FD1F3950F50E0551F629FF001729F7F
:101E2000BB27F00DB11D639FAA27F00DB11DAA1F9E
:101E3000649F6627B00DA11D661F829F2227B00DEB
:101E4000A11D621F739FB00DA11D621F839FA00D76
:101E5000611D221F749F3327A00D611D231F849FC6
:101E6000600D211D822F762F6A2F11249F5750401D
:101E70008AF0E1F088234AF0EE0FFF1FBB1F661FB8
:101E8000771F881F91505040A9F79E3F510570F071
:101E900014C0A6CF5F3FECF3983EDCF386957795B0
:101EA0006795B795F795E7959F5FC1F7FE2B880F6C
:101EB000911D9695879597F9089597F99F6780E802
:101EC00070E060E008959FEF80EC089500240A948C
:101ED0001616170618060906089500240A94121605
:101EE0001306140605060895092E0394000C11F438
:101EF000882352F0BB0F40F4BF2B11F460FF04C0E5
:101F00006F5F7F4F8F4F9F4F089597FB072E16F4FB
:101F1000009406D077FD08D014D007FC05D03EF41D
:101F2000909581959F4F0895709561957F4F089585
:101F3000EE0FFF1F0024001C0BBE0790F691E02D52
:101F40000994AA1BBB1B51E107C0AA1FBB1FA61700
:101F5000B70710F0A61BB70B881F991F5A95A9F752
:101F600080959095BC01CD0108958F929F92AF927C
:101F7000BF92CF92DF92EF92FF92CF93DF93EC016B
:101F8000688179818A819B8161157105810591053F
:101F900021F464E279ED8BE597E02DE133EF41E048
:101FA00050E038D049015A019B01AC01A7EAB1E4E5
:101FB0004DD06B017C01ACEEB4EFA501940152D081
:101FC000DC01CB018C0D9D1DAE1DBF1DB7FF03C0F5
:101FD0000197A109B04888839983AA83BB839F771F
:101FE000DF91CF91FF90EF90DF90CF90BF90AF90B7
:101FF0009F908F900895B9CF80E091E0B6CFA0E098
:10200000B0E08093000190930101A0930201B0938E
:1020100003010895052E97FB16F400940FD057FD89
:1020200005D024D007FC02D046F408C05095409556
:10203000309521953F4F4F4F5F4F08959095809574
:10204000709561957F4F8F4F9F4F089531D0A59F19
:10205000900DB49F900DA49F800D911D11240895A3
:10206000B7FFF4CFF3DF821B930B0895A1E21A2E82
:10207000AA1BBB1BFD010DC0AA1FBB1FEE1FFF1F2C
:10208000A217B307E407F50720F0A21BB30BE40B7C
:10209000F50B661F771F881F991F1A9469F76095C3
:1020A0007095809590959B01AC01BD01CF0108957D
:1020B000A29FB001B39FC001A39F700D811D112489
:1020C000911DB29F700D811D1124911D0895F894EA
:0220D000FFCF40
:0A20D2000100000001000000010001
:00000001FF
