S0180000616368656E3131355F70726F6A6563742E7372656320
S113000045C0000061C000005FC000005DC000008A
S11300105BC0000059C0000057C0000055C000007C
S113002053C0000051C000004FC000004DC000008C
S11300304BC0000049C0000047C0000045C000009C
S113004043C0000041C000003FC000003DC00000AC
S11300503BC0000039C0000037C0000035C00000BC
S113006033C0000031C000002FC000002DC00000CC
S11300702BC0000029C0000027C0000025C00000DC
S113008023C0000021C000001FC0000011241FBEB7
S1130090CFEFD0E4DEBFCDBF11E0A0E0B1E0E0E2FD
S11300A0F2E100E00BBF02C007900D92A630B10749
S11300B0D9F721E0A6E0B1E001C01D92A63AB2074B
S11300C0E1F7F4D70C940E099BCFCF93DF9300D0C4
S11300D0CDB7DEB789836A8300008FE390E0FC012B
S11300E08081882F90E084709927892BB1F781E46F
S11300F090E02981222F30E0FC013183208380E4C9
S113010090E02A81FC0120838FE390E02FE330E02C
S1130110F90120812F70FC0120838FE390E02FE30D
S113012030E0F90120812460FC0120838FE390E01A
S11301302FE330E0F90120812260FC0120830000DC
S11301400F900F90DF91CF910895CF93DF9300D05C
S1130150CDB7DEB79A83898300008FE390E0FC017A
S11301608081882F90E084709927892BB1F781E4EE
S113017090E029813A81FC01318320838FE390E070
S11301802FE330E0F90120812160FC01208380E429
S113019090E0FC0180810F900F90DF91CF91089542
S11301A0CF93DF93CDB7DEB728970FB6F894DEBFB1
S11301B00FBECDBF9E838D8378876F838D819E8193
S11301C0FC01208131818F819885FC01808191819E
S11301D0820F931F9A8389838D819E81FC012281E2
S11301E033818F819885FC0182819381820F931FD3
S11301F09C838B8389819A81AB81BC81BC01CD01B5
S113020028960FB6F894DEBF0FBECDBFDF91CF9115
S11302100895CF93DF9300D000D0CDB7DEB79C8391
S11302208B838B819C81FC01808191819A8389835A
S11302308B819C81FC018281938122273327281B97
S1130240390B8B819C81FC01318320838B819C81C0
S113025029813A81FC013383228300000F900F909F
S11302600F900F90DF91CF910895CF93DF9300D03B
S113027000D000D0CDB7DEB79A8389834B835C83EB
S11302806D837E8329813A818B819C81AD81BE817E
S1130290F90180839183A283B38389819A81FC01CC
S11302A01582148289819A8121E030E0FC01378330
S11302B0268389819A81FC011186108689819A811D
S11302C0FC011386128689819A81FC0115861486A5
S11302D089819A812FEF3FEFFC0137872687898137
S11302E09A8121E030E0FC01318B208B89819A8155
S11302F02FEF3FEFFC01338B228B89819A81269665
S11303000FB6F894DEBF0FBECDBFDF91CF91089535
S1130310CF93DF9300D000D000D0CDB7DEB79A835F
S113032089834B835C836D837E8329813A818B81AE
S11303309C81AD81BE81F90180839183A283B383C3
S113034089819A812FEF3FEFFC01358324838981D2
S11303509A81FC011782168289819A81FC01118697
S1130360108689819A81FC011386128689819A817B
S113037021E030E0FC013587248789819A81FC01E2
S11303801786168689819A8121E030E0FC01318B41
S1130390208B89819A8121E030E0FC01338B228B10
S11303A089819A8126960FB6F894DEBF0FBECDBF21
S11303B0DF91CF910895CF93DF9300D000D000D088
S11303C0CDB7DEB79A8389834B835C836D837E8349
S11303D029813A818B819C81AD81BE81F901808321
S11303E09183A283B38389819A81FC01158214824B
S11303F089819A812FEF3FEFFC013783268389811E
S11304009A81FC011186108689819A81FC011386E8
S1130410128689819A81FC011586148689819A81C4
S113042021E030E0FC013787268789819A81FC012D
S1130430118A108A89819A8122E030E0FC01338B91
S1130440228B89819A8126960FB6F894DEBF0FBE5F
S1130450CDBFDF91CF910895CF93DF9300D000D02B
S113046000D0CDB7DEB79A8389834B835C836D83D9
S11304707E8329813A818B819C81AD81BE81F90182
S113048080839183A283B38389819A81FC0115823D
S1130490148289819A812FEF3FEFFC0137832683F1
S11304A089819A81FC011186108689819A81FC01D7
S11304B01386128689819A8121E030E0FC01358718
S11304C0248789819A81FC011786168689819A81FD
S11304D021E030E0FC01318B208B89819A812FEF60
S11304E03FEFFC01338B228B89819A8126960FB6CC
S11304F0F894DEBF0FBECDBFDF91CF910895CF93A7
S1130500DF9300D000D000D0CDB7DEB79E838D83BB
S113051084E090E09A83898382E190E09C838B83DA
S113052012D683709078992324F401978C6F9F6F6F
S113053001968130910581F082309105C1F0892BBB
S113054009F52D813E8189819A81AB81BC81AC0101
S1130550BD01C9018ADE20C02D813E8189819A8135
S1130560AB81BC81AC01BD01C901D2DE15C02D81B6
S11305703E8189819A81AB81BC81AC01BD01C901F5
S11305801ADF0AC02D813E8189819A81AB81BC81A9
S1130590AC01BD01C90160DF8D819E8126960FB635
S11305A0F894DEBF0FBECDBFDF91CF910895CF93F6
S11305B0DF9300D000D0CDB7DEB79A8389837C83E4
S11305C06B838B819C810196880F991F880F991FDB
S11305D029813A81280F391F89819A81B901E0DD87
S11305E0DC01CB01BC01CD010F900F900F900F9057
S11305F0DF91CF910895CF93DF9300D0CDB7DEB7CD
S11306009A83898389819A81FC01828193810197EC
S11306109C0189819A81FC013383228300000F901D
S11306200F90DF91CF910895CF93DF9300D0CDB792
S1130630DEB79A83898389819A81FC0180819181C3
S113064001969C0189819A81FC01318320830000F9
S11306500F900F90DF91CF910895CF93DF9300D047
S1130660CDB7DEB79A83898389819A81FC01808121
S1130670918101979C0189819A81FC0131832083B6
S113068000000F900F90DF91CF910895CF93DF93E7
S113069000D000D0CDB7DEB79C838B831A82198239
S11306A011C089819A810196880F991F880F991F1B
S11306B02B813C81820F931FACDD89819A81019645
S11306C09A83898389819A81049758F300000F9053
S11306D00F900F900F90DF91CF910895CF93DF93F8
S11306E000D000D0CDB7DEB79A8389837C836B8337
S11306F08B819C81FC01208131818B819C81FC0157
S11307008281938149815A8122953295307F3227A3
S1130710207F3227240F351F820F931FFC01808115
S11307200F900F900F900F90DF91CF910895CF937A
S1130730DF9300D000D000D0CDB7DEB79C838B838D
S11307407E836D831A82198217C02B813C81898133
S11307509A8182959295907F9827807F9827280F79
S1130760391F8D819E81820F931FFC011082898124
S11307709A8101969A83898389819A8109972CF7B2
S1130780000026960FB6F894DEBF0FBECDBFDF91F2
S1130790CF910895CF93DF9300D000D000D0CDB790
S11307A0DEB79C838B837E836D831A82198218C083
S11307B02B813C8189819A8182959295907F98279B
S11307C0807F9827280F391F8D819E81820F931F68
S11307D021E0FC01208389819A8101969A8389838F
S11307E089819A81099724F7000026960FB6F89418
S11307F0DEBF0FBECDBFDF91CF910895CF93DF93BE
S1130800CDB7DEB728970FB6F894DEBF0FBECDBFC5
S11308109E838D8378876F838F8198859A8389835C
S113082036C01C821B822AC089819A8101964D811F
S11308305E812B813C8122953295307F3227207F47
S11308403227240F351F820F931FFC0140812D8115
S11308503E818B819C8182959295907F9827807FA1
S11308609827280F391F89819A81820F931FFC01D1
S113087040838B819C8101969C838B838B819C819B
S1130880089794F289819A8101969A838983898150
S11308909A81019640972CF28D819E816FE070E0E1
S11308A046DF000028960FB6F894DEBF0FBECDBF1A
S11308B0DF91CF910895CF93DF9300D000D000D083
S11308C0CDB7DEB79C838B837E836D831A821982B6
S11308D01BC02B813C8189819A8182959295907F5E
S11308E09827807F9827280F391F8D819E81820F3A
S11308F0931FFC018081882311F480E00AC0898160
S11309009A8101969A83898389819A8108970CF345
S113091081E026960FB6F894DEBF0FBECDBFDF91FF
S1130920CF910895CF93DF9300D000D0CDB7DEB739
S11309309A8389837C836B838B819C81FC01808176
S113094091819923C4F08B819C81FC0180819181E8
S113095008978CF48B819C81FC018281938199237B
S113096054F08B819C81FC018281938140971CF41B
S113097081E090E002C080E090E00F900F900F9033
S11309800F90DF91CF910895CF93DF93CDB7DEB76A
S11309902A970FB6F894DEBF0FBECDBF98878F831A
S11309A07A8769871A82198225C029813A818985C3
S11309B09A85B901FCDDDC01CB018B839C83AD837B
S11309C0BE839E012D5F3F4F8F819885B901AADFB9
S11309D0882349F09E012D5F3F4F8F819885B9018F
S11309E07DDE882311F080E00AC089819A81019616
S11309F09A83898389819A810497B8F281E02A963F
S1130A000FB6F894DEBF0FBECDBFDF91CF9108952E
S1130A10CF93DF93CDB7DEB72A970FB6F894DEBF36
S1130A200FBECDBF98878F837A8769871A82198210
S1130A3031C029813A8189859A85B901B8DDDC0103
S1130A40CB018B839C83AD83BE838D819E811816DD
S1130A50190614F081E023C08D819E8101979E8345
S1130A608D839E012D5F3F4F8F819885B9015ADF99
S1130A70882359F09E012D5F3F4F8F819885B901DE
S1130A802DDE882311F081E00AC089819A810196C4
S1130A909A83898389819A81049758F280E02A96FF
S1130AA00FB6F894DEBF0FBECDBFDF91CF9108958E
S1130AB0CF93DF93CDB7DEB768970FB6F894DEBF58
S1130AC00FBECDBF9E8B8D8B788F6F8B8F89988D4A
S1130AD024E1FC01CE010196DC0101900D922A95DE
S1130AE0E1F7CE010196D2DD8D899E899E012F5FAB
S1130AF03F4FB90149DF68960FB6F894DEBF0FBEC9
S1130B00CDBFDF91CF910895CF93DF93CDB7DEB7FB
S1130B1068970FB6F894DEBF0FBECDBF9E8B8D8B4A
S1130B20788F6F8B8F89988D24E1FC01CE0101961B
S1130B30DC0101900D922A95E1F7CE01019674DD56
S1130B408D899E899E012F5F3F4FB9011DDF6896F5
S1130B500FB6F894DEBF0FBECDBFDF91CF910895DD
S1130B60CF93DF93CDB7DEB768970FB6F894DEBFA7
S1130B700FBECDBF9E8B8D8B788F6F8B8F89988D99
S1130B8024E1FC01CE010196DC0101900D922A952D
S1130B90E1F7CE01019661DD8D899E899E012F5F6B
S1130BA03F4FB901F1DE68960FB6F894DEBF0FBE71
S1130BB0CDBFDF91CF910895CF93DF93CDB7DEB74B
S1130BC02A970FB6F894DEBF0FBECDBF98878F83E8
S1130BD07A8769871A8219822DC029813A81898589
S1130BE09A85B901E4DCDC01CB018B839C83AD8362
S1130BF0BE839E012D5F3F4F8F819885B90192DEA0
S1130C00882399F02B813C818D819E814F81588569
S1130C1022953295307F3227207F3227240F351FCB
S1130C20820F931F21E0FC01208389819A81019620
S1130C309A83898389819A81049778F200002A969D
S1130C400FB6F894DEBF0FBECDBFDF91CF910895EC
S1130C50CF93DF93CDB7DEB72A970FB6F894DEBFF4
S1130C600FBECDBF98878F837A8769871A821982CE
S1130C702CC029813A8189859A85B90198DCDC01E7
S1130C80CB018B839C83AD83BE839E012D5F3F4F3D
S1130C908F819885B90146DE882391F02B813C81B0
S1130CA08D819E814F81588522953295307F3227E0
S1130CB0207F3227240F351F820F931FFC011082DF
S1130CC089819A8101969A83898389819A8104977B
S1130CD080F200002A960FB6F894DEBF0FBECDBF97
S1130CE0DF91CF910895CF93DF9300D01F92CDB7BA
S1130CF0DEB78B838B818093A4011A8219828B8146
S1130D00882F90E08130910561F08230910561F087
S1130D10892B09F017C089819A8117DA8093A5017C
S1130D2011C01092A4010EC089819A810EDA982F05
S1130D308091A501981728F48091A501682F80E07F
S1130D40C4D9000000000F900F900F90DF91CF9155
S1130D500895CF93DF93CDB7DEB76A970FB6F894B3
S1130D60DEBF0FBECDBF80910601909107010197B0
S1130D7090930701809306018091060190910701E9
S1130D80181619060CF488C180910801882F90E088
S1130D908130910531F1823091051CF4892B49F0A1
S1130DA07CC18230910509F4FAC0039709F456C155
S1130DB074C1CE010796A3DB84E1FE013796A9E056
S1130DC0B1E001900D928A95E1F71092A50188EEA9
S1130DD093E0909307018093060181E080930801DA
S1130DE05CC169E071E08DE191E032DF80E290E086
S1130DF0FC01808180958D8380919D01982F909531
S1130E008D8189238E838E81882F90E08230910595
S1130E10B9F0833091051CF4019739F037C0843060
S1130E209105C9F0059729F131C069E071E08DE1C0
S1130E3091E06ADE882329F189E091E0F5DB21C0A5
S1130E4069E071E08DE191E033DE8823E1F089E02F
S1130E5091E01CDC18C069E071E08DE191E080DE76
S1130E60882399F089E091E0F8DB0FC089E091E0F4
S1130E70C2DB69E071E08DE191E0CADD8823B1F362
S1130E8005C0000003C0000001C0000069E071E07B
S1130E908DE191E0BDDD882309F469C069E071E06A
S1130EA08DE191E071DD882309F453C069E071E0BC
S1130EB08DE191E081DE1A82198227C089819A81AD
S1130EC0BC018DE191E0F7DC8823D1F089819A811E
S1130ED090939F0180939E0184E08093040182E0BB
S1130EE0809308018AEF90E09093070180930601B4
S1130EF099818091A501890F8F5F8093A501CDC051
S1130F0089819A8101969A83898389819A814097FC
S1130F10A8F28091A0019091A10101969093A10162
S1130F208093A0011092A3011092A201CE01079612
S1130F30E6DA84E1FE013796A9E0B1E001900D9272
S1130F408A95E1F784EF91E090930701809306017D
S1130F50A4C083E08093080110929F0110929E0127
S1130F6088EE93E0909307018093060196C089E090
S1130F7091E041DB69E071E08DE191E01DDE80915B
S1130F80A2019091A30101969093A3018093A201E1
S1130F9084EF91E090930701809306017EC08091D5
S1130FA004018170882349F080919E0190919F01F2
S1130FB0BC018DE191E0EEDB08C080919E0190912F
S1130FC09F01BC018DE191E0B2DB80910401882393
S1130FD061F0809104018150809304018AEF90E0D4
S1130FE0909307018093060158C080919E019091CF
S1130FF09F01BC018DE191E001DC1C821B8220C0B9
S11310008B819C81BC018DE191E055DC882399F0B2
S11310108B819C8190939F0180939E0184E08093B7
S1131020040182E0809308018AEF90E09093070125
S11310308093060132C08B819C8101969C838B83B3
S11310408B819C814097E0F281E08093080184EFDA
S113105091E090930701809306011FC080919E0147
S113106090919F014097A4F460E070E08DE191E0DD
S11310705EDB60E070E08DE191E0C0DB80919E0179
S113108090919F01019690939F0180939E0105C0CA
S113109082E029DE000001C000006A960FB6F894D1
S11310A0DEBF0FBECDBFDF91CF910895CF93DF9305
S11310B0CDB7DEB74EDEFECF8F929F92AF92BF9236
S11310C0CF92DF92EF92FF92CF93DF93EC0168818E
S11310D079818A819B81611571058105910521F4CE
S11310E064E279ED8BE597E02DE133EF41E050E0E8
S11310F038D049015A019B01AC01A7EAB1E44DD0B3
S11311006B017C01ACEEB4EFA501940152D0DC017B
S1131110CB018C0D9D1DAE1DBF1DB7FF03C00197F4
S1131120A109B04888839983AA83BB839F77DF9101
S1131130CF91FF90EF90DF90CF90BF90AF909F90B2
S11311408F900895B9CF80E091E0B6CFA0E0B0E0F1
S11311508093000190930101A0930201B0930301D5
S11311600895052E97FB16F400940FD057FD05D073
S113117024D007FC02D046F408C050954095309521
S113118021953F4F4F4F5F4F0895909580957095EF
S113119061957F4F8F4F9F4F089531D0A59F900D3C
S11311A0B49F900DA49F800D911D11240895B7FF45
S11311B0F4CFF3DF821B930B0895A1E21A2EAA1B2E
S11311C0BB1BFD010DC0AA1FBB1FEE1FFF1FA217F3
S11311D0B307E407F50720F0A21BB30BE40BF50BF0
S11311E0661F771F881F991F1A9469F76095709579
S11311F0809590959B01AC01BD01CF010895A29FFC
S1131200B001B39FC001A39F700D811D1124911DD6
S1131210B29F700D811D1124911D0895F894FFCF84
S1091220010000000100C2
S9030000FC
