:1000000043C1000060C100005EC100005CC100008F
:100010005AC1000058C1000056C1000054C1000080
:1000200052C1000050C100004EC100004CC1000090
:100030004AC1000044C5000046C1000044C10000A0
:1000400042C1000040C100003EC100003CC10000B0
:100050003AC1000038C1000036C1000034C10000C0
:1000600032C1000030C100002EC100002CC10000D0
:100070002AC1000028C1000026C1000024C10000E0
:1000800022C1000020C100001EC10000320E380E47
:10009000410E3B0E410E410E410EE30FE90FEF0FF3
:1000A000F50FFE0F06100C10000000000000005FAE
:1000B00000000007000700147F147F14242A7F2A01
:1000C00012231308646236495522500005030000CC
:1000D000001C2241000041221C0014083E081408A4
:1000E000083E0808005030000008080808080060B2
:1000F00060000020100804023E5149453E00427F46
:10010000400042615149462141454B311814127F4C
:100110001027454545393C4A4949300171090503D5
:100120003649494936064949291E0036360000003D
:10013000563600000814224100141414141400410F
:100140002214080201510906324979413E7E1111FB
:10015000117E7F494949363E414141227F4141223A
:100160001C7F494949417F090909013E4149497AB2
:100170007F0808087F00417F41002040413F017F08
:10018000081422417F404040407F020C027F7F04E0
:1001900008107F3E4141413E7F090909063E415119
:1001A000215E7F09192946464949493101017F01EC
:1001B000013F4040403F1F2040201F3F4038403F0C
:1001C0006314081463070870080761514945430028
:1001D0007F41410002040810200041417F000402D9
:1001E00001020440404040400001020400205454F9
:1001F00054787F4844443838444444203844444880
:100200007F3854545418087E0901020C5252523E51
:100210007F0804047800447D40002040443D007F76
:100220001028440000417F40007C041804787C08BA
:1002300004047838444444387C1414140808141412
:10024000187C7C080404084854545420043F44405B
:10025000203C4040207C1C2040201C3C4030403C46
:1002600044281028440C5050503C4464544C4400E2
:100270000836410000007F000000413608001008E9
:10028000081008000000000011241FBECFEFD0E4CA
:10029000DEBFCDBF11E0A0E0B1E0E8E0FAE200E0AF
:1002A0000BBF02C007900D92A834B107D9F724E024
:1002B000A8E4B1E001C01D92A936B207E1F70E949F
:1002C000E5120C9402159CCE1F93CF93DF9300D0C0
:1002D000CDB7DEB789836A8382E290E022E230E024
:1002E000F90120812D7FFC0120838A81882351F030
:1002F00082E290E022E230E0F90120812860FC01F6
:10030000208309C082E290E022E230E0F9012081FE
:10031000277FFC01208310E03CC08981882F90E07A
:10032000212F30E047E050E0BA01621B730B9B01C4
:1003300002C0959587952A95E2F781709927892BB8
:1003400051F082E290E022E230E0F9012081206168
:10035000FC01208309C082E290E022E230E0F90152
:1003600020812F7EFC01208382E290E022E230E0B7
:10037000F90120812062FC01208382E290E022E2E8
:1003800030E0F90120812F7DFC012083812F11E0D5
:10039000180F183010F282E290E022E230E0F9010A
:1003A00020812260FC01208300000F900F90DF91DC
:1003B000CF911F910895CF93DF931F92CDB7DEB7F2
:1003C000898360E0898180DF00000F90DF91CF9109
:1003D0000895CF93DF931F92CDB7DEB7898361E095
:1003E000898172DF00000F90DF91CF9108950F9304
:1003F0001F93CF93DF93CDB7DEB76C970FB6F8940A
:10040000DEBF0FBECDBF81E290E021E230E0F90116
:1004100020812260FC01208381E290E021E230E033
:10042000F90120812460FC01208381E290E021E237
:1004300030E0F90120812860FC01208381E290E016
:1004400021E230E0F90120812061FC01208381E27A
:1004500090E021E230E0F90120812062FC0120835C
:1004600082E290E022E230E0F90120812460FC0188
:10047000208382E290E022E230E0F90120812260D4
:10048000FC01208380E090E0A0E2B1E489839A83BC
:10049000AB83BC8320E030E04AE753E469817A8192
:1004A0008B819C810E948913DC01CB018B8B9C8BFF
:1004B000AD8BBE8B20E030E040E85FE36B897C8948
:1004C0008D899E890E94081388232CF481E090E096
:1004D000988F8F8B3FC020E03FEF4FE757E46B8949
:1004E0007C898D899E890E94851318164CF520E021
:1004F00030E040E251E469817A818B819C810E94E5
:100500008913DC01CB01BC01CD010E940C13DC017D
:10051000CB01988F8F8B0FC089E190E09A8F898FE4
:10052000898D9A8D0197F1F79A8F898F8F89988D90
:100530000197988F8F8B8F89988D892B69F714C0BD
:100540006B897C898D899E890E940C13DC01CB010B
:10055000988F8F8B8F89988D9C8F8B8F8B8D9C8D97
:100560000197F1F79C8F8B8F82E290E022E230E0DE
:10057000F90120812B7FFC01208380E090E0ACE832
:10058000B2E48D839E83AF83B88720E030E04AE7F2
:1005900053E46D817E818F8198850E948913DC01EF
:1005A000CB0189879A87AB87BC8720E030E040E8A1
:1005B0005FE369857A858B859C850E940813882373
:1005C0002CF481E090E09E878D873FC020E03FEFD4
:1005D0004FE757E469857A858B859C850E94851352
:1005E00018164CF520E030E040E251E46D817E8148
:1005F0008F8198850E948913DC01CB01BC01CD015C
:100600000E940C13DC01CB019E878D870FC089E10E
:1006100090E0988B8F878F8598890197F1F7988B59
:100620008F878D859E8501979E878D878D859E8579
:10063000892B69F714C069857A858B859C850E9412
:100640000C13DC01CB019E878D878D859E859A8B4F
:10065000898B89899A890197F1F79A8B898B82E234
:1006600090E022E230E0F90120812460FC01208347
:1006700082E290E022E230E0F90120812D7FFC014E
:10068000208381E298DE83E196DE86E094DE82ECD0
:1006900092DE80E290DE89E08EDE80E88CDE80E40F
:1006A0008ADE00E010E004C080E093DE0F5F1F4FA1
:1006B000083FF1E01F07C0F388E07DDE8CE07BDEC1
:1006C00000006C960FB6F894DEBF0FBECDBFDF9171
:1006D000CF911F910F9108950F931F93CF93DF93A5
:1006E000CDB7DEB780E867DE80E465DE10924003B8
:1006F0001092410300E010E007C0C801885B9E4FE4
:10070000FC0110820F5F1F4F083FF1E01F07A8F3A5
:100710000000DF91CF911F910F910895CF93DF9348
:1007200000D000D01F92CDB7DEB78B836C834D8392
:100730008C81869586958695882F90E044E5489F24
:100740009001499F300D11248B81882F90E0820FFA
:10075000931F885B9E4F9A8389838D818823C9F07C
:1007600089819A81FC018081482F8C81882F90E0BB
:100770009C012770332781E090E002C0880F991F09
:100780002A95E2F7842B282F89819A81FC01208306
:1007900019C089819A81FC018081482F8C81882F22
:1007A00090E09C012770332781E090E002C0880F21
:1007B000991F2A95E2F780958423282F89819A81B1
:1007C000FC01208300000F900F900F900F900F906E
:1007D000DF91CF9108950F931F93CF93DF9300D0B4
:1007E00000D01F92CDB7DEB78C836D8310E063C05D
:1007F00000E04CC08C81882F90E09C012052310990
:100800009D81812F692F0E941414482F50E0C90147
:10081000880F991F880F991F820F931F840F951FB0
:1008200088559F4F9A83898389819A81FC0184919D
:100830008B838B81282F30E09D81802F692F0E9430
:100840001414882F90E0A90102C0559547958A9508
:10085000E2F7CA0181709927892B59F080914103F1
:10086000982F900F80914003810F41E0692F56DF50
:100870000AC080914103982F900F80914003810F0F
:1008800040E0692F4BDF802F01E0080F402F50E040
:100890008D81282F30E0C901880F991F880F991F7B
:1008A000880F991F821B930B481759070CF4A2CF8E
:1008B000812F11E0180F412F50E08D81282F30E05B
:1008C000C901880F991F880F991F820F931F48171E
:1008D00059070CF48DCF209140039D81892F880FFB
:1008E000880F890F820F8F5F8093400380914003B0
:1008F000843570F010924003209141039D81892F2F
:10090000880F880F880F891B820F8F5F80934103A8
:1009100080914103803320F01092400310924103F4
:1009200000000F900F900F900F900F90DF91CF91DC
:100930001F910F910895CF93DF9300D01F92CDB7F1
:10094000DEB79A8389836B830BC089819A819C016E
:100950002F5F3F4F3A832983FC0180816B813BDF0E
:1009600089819A81FC018081882379F700000F90AA
:100970000F900F90DF91CF910895CF93DF9300D028
:10098000CDB7DEB789836A838981809340038A81EA
:100990008093410300000F900F90DF91CF91089555
:1009A0000F931F93CF93DF93CDB7DEB780E803DDBE
:1009B00080E401DD00E010E008C0C801885B9E4FC4
:1009C000FC01808106DD0F5F1F4F083FF1E01F072C
:1009D000A0F30000DF91CF911F910F910895CF9365
:1009E000DF9300D000D0CDB7DEB769837A838B83E5
:1009F0009C8389819A81AB81BC818093040190930F
:100A00000501A0930601B093070180910401909124
:100A10000501A0910601B0910701809343039093D3
:100A20004403A0934503B093460300000F900F903A
:100A30000F900F90DF91CF910895CF93DF93CDB7B3
:100A4000DEB781E890E02BE0FC01208388E890E0AD
:100A50002DE730E0FC01318320838FE690E022E037
:100A6000FC01208384E890E0FC01118210828091D7
:100A7000040190910501A0910601B09107018093B6
:100A8000430390934403A0934503B09346038FE53B
:100A900090E02FE530E0F90120812068FC012083FF
:100AA0000000DF91CF910895CF93DF93CDB7DEB7EC
:100AB00081E0809342030000DF91CF9108951F925F
:100AC0000F9200905F000F92112400905B000F9234
:100AD0002F933F934F935F936F937F938F939F9346
:100AE000AF93BF93EF93FF93CF93DF93CDB7DEB771
:100AF0008091430390914403A0914503B091460334
:100B00000197A109B1098093430390934403A093F3
:100B10004503B09346038091430390914403A09111
:100B20004503B0914603892B8A2B8B2B89F4BCDFBC
:100B30008091040190910501A0910601B0910701F7
:100B40008093430390934403A0934503B0934603DB
:100B50000000DF91CF91FF91EF91BF91AF919F91F5
:100B60008F917F916F915F914F913F912F910F9056
:100B700000925B000F9000925F000F901F901895FD
:100B8000CF93DF9300D0CDB7DEB789836A830000AF
:100B90008FE390E0FC018081882F90E0847099279A
:100BA000892BB1F781E490E02981222F30E0FC010C
:100BB0003183208380E490E02A81FC0120838FE34D
:100BC00090E02FE330E0F90120812F70FC012083B9
:100BD0008FE390E02FE330E0F90120812460FC01F5
:100BE00020838FE390E02FE330E0F9012081226041
:100BF000FC01208300000F900F90DF91CF910895AA
:100C0000CF93DF9300D0CDB7DEB79A8389830000FE
:100C10008FE390E0FC018081882F90E08470992719
:100C2000892BB1F781E490E029813A81FC0131837D
:100C300020838FE390E02FE330E0F90120812160F1
:100C4000FC01208380E490E0FC0180810F900F90F4
:100C5000DF91CF910895CF93DF93CDB7DEB728977B
:100C60000FB6F894DEBF0FBECDBF9E838D8378870D
:100C70006F838D819E81FC01208131818F819885D8
:100C8000FC0180819181820F931F9A8389838D81DA
:100C90009E81FC01228133818F819885FC018281B4
:100CA0009381820F931F9C838B8389819A81AB816F
:100CB000BC81BC01CD0128960FB6F894DEBF0FBEF3
:100CC000CDBFDF91CF910895CF93DF9300D000D0B7
:100CD000CDB7DEB79C838B838B819C81FC018081A7
:100CE00091819A8389838B819C81FC01828193818C
:100CF00022273327281B390B8B819C81FC013183F0
:100D000020838B819C8129813A81FC01338322835A
:100D100000000F900F900F900F90DF91CF910895EA
:100D2000CF93DF9300D000D0CDB7DEB79C838B8309
:100D30008B819C81FC01828193819A8389838B8141
:100D40009C81FC018081918122273327281B390B4C
:100D50008B819C81FC01338322838B819C8129813F
:100D60003A81FC013183208300000F900F900F9097
:100D70000F90DF91CF910895CF93DF9300D000D0F3
:100D800000D0CDB7DEB79A8389834B835C836D83B4
:100D90007E8329813A818B819C81AD81BE81F9015D
:100DA00080839183A283B38389819A81FC01158218
:100DB000148289819A8121E030E0FC013783268307
:100DC00089819A81FC011186108689819A81FC01B2
:100DD0001386128689819A81FC0115861486898181
:100DE0009A812FEF3FEFFC013787268789819A810F
:100DF00021E030E0FC01318B208B89819A812FEF3B
:100E00003FEFFC01338B228B89819A8126960FB6A6
:100E1000F894DEBF0FBECDBFDF91CF910895CF9381
:100E2000DF9300D000D000D0CDB7DEB79A8389839E
:100E30004B835C836D837E8329813A818B819C8186
:100E4000AD81BE81F90180839183A283B3838981BF
:100E50009A812FEF3FEFFC013583248389819A81AA
:100E6000FC011782168289819A81FC011186108605
:100E700089819A81FC011386128689819A81FC01FD
:100E80001586148689819A8121E030E0FC0137873C
:100E9000268789819A8121E030E0FC01318B208B0B
:100EA00089819A8121E030E0FC01338B228B89819A
:100EB0009A8126960FB6F894DEBF0FBECDBFDF91A4
:100EC000CF910895CF93DF9300D000D000D0CDB75D
:100ED000DEB79A8389834B835C836D837E8329810C
:100EE0003A818B819C81AD81BE81F90180839183A0
:100EF000A283B38389819A81FC011582148289813E
:100F00009A812FEF3FEFFC013783268389819A81F5
:100F1000FC011186108689819A81FC011386128654
:100F200089819A81FC011586148689819A8121E044
:100F300030E0FC013787268789819A81FC01118A7C
:100F4000108A89819A8122E030E0FC01338B228B68
:100F500089819A8126960FB6F894DEBF0FBECDBF69
:100F6000DF91CF910895CF93DF9300D000D000D0D0
:100F7000CDB7DEB79A8389834B835C836D837E8391
:100F800029813A818B819C81AD81BE81F901808369
:100F90009183A283B38389819A81FC011582148293
:100FA00089819A812FEF3FEFFC0137832683898166
:100FB0009A81FC011186108689819A81FC01138631
:100FC000128689819A8121E030E0FC0135872487EF
:100FD00089819A81FC011786168689819A8121E090
:100FE00030E0FC01318B208B89819A812FEF3FEF1C
:100FF000FC01338B228B89819A8126960FB6F89457
:10100000DEBF0FBECDBFDF91CF910895CF93DF93A9
:1010100000D000D0CDB7DEB79A8389837C836B8301
:101020008B819C810196880F991F880F991F2981B8
:101030003A81280F391F89819A81B9010CDEDC01C0
:10104000CB01BC01CD010F900F900F900F90DF915D
:10105000CF910895CF93DF9300D0CDB7DEB79A83B9
:10106000898389819A81FC018281938101979C0106
:1010700089819A81FC013383228300000F900F90B5
:10108000DF91CF910895CF93DF9300D0CDB7DEB736
:101090009A83898389819A81FC018081918101965B
:1010A0009C0189819A81FC013183208300000F908B
:1010B0000F90DF91CF910895CF93DF9300D0CDB7FC
:1010C000DEB79A83898389819A81FC01808191812D
:1010D00001979C0189819A81FC0131832083000062
:1010E0000F900F90DF91CF910895CF93DF9300D0B1
:1010F00000D0CDB7DEB79C838B831A82198225C0BE
:101100002B813C8189819A810196880F991F880FD4
:10111000991F820F931FFC01808191812227332721
:10112000281B390B4B815C8189819A810196880F3C
:10113000991F880F991F840F951FFC01318320830D
:1011400089819A8101969A83898389819A810497FA
:10115000B8F200000F900F900F900F90DF91CF9199
:101160000895CF93DF9300D000D0CDB7DEB79C8336
:101170008B831A82198211C089819A810196880F06
:10118000991F880F991F2B813C81820F931F9CDD33
:1011900089819A8101969A83898389819A810497AA
:1011A00058F300000F900F900F900F90DF91CF91A8
:1011B0000895CF93DF9300D000D0CDB7DEB79C83E6
:1011C0008B831A82198211C089819A810196880FB6
:1011D000991F880F991F2B813C81820F931FA0DDDF
:1011E00089819A8101969A83898389819A8104975A
:1011F00058F300000F900F900F900F90DF91CF9158
:101200000895CF93DF93CDB7DEB7AF970FB6F894BD
:10121000DEBF0FBECDBF9B8F8A8F0E949714877051
:101220009078992324F40197886F9F6F01968E5FC1
:1012300089838981882F90E09B838A8387E190E06E
:101240009D838C830E94971483709078992324F453
:1012500001978C6F9F6F019681309105D9F0823094
:10126000910569F1892B09F03FC09E01245E3F4F33
:101270008A819B81AC81BD81AC01BD01C9017CDD4E
:1012800084E1FE017C96DE01169601900D928A950E
:10129000E1F73FC09E01245E3F4F8A819B81AC8174
:1012A000BD81AC01BD01C901BADD84E1FE017C96BE
:1012B000DE01169601900D928A95E1F72AC09E01F3
:1012C000245E3F4F8A819B81AC81BD81AC01BD0111
:1012D000C901F8DD84E1FE017C96DE0116960190DD
:1012E0000D928A95E1F715C09E01245E3F4F8A81D9
:1012F0009B81AC81BD81AC01BD01C90134DE84E1BB
:10130000FE017C96DE01169601900D928A95E1F71A
:1013100000000E94971423E030E0B9010E942014DD
:10132000009719F0019729F008C0CE01069619DF41
:1013300004C0CE0106963DDF00000E949714817024
:101340009927892B19F0CE010696CFDE8A8D9B8DC9
:1013500024E1FE013696DC0101900D922A95E1F719
:101360008A8D9B8DAF960FB6F894DEBF0FBECDBFB2
:10137000DF91CF910895CF93DF9300D000D0CDB708
:10138000DEB79A8389837C836B838B819C81FC018C
:10139000608171818B819C81FC0182819381498173
:1013A0005A81E5E1E69F9001E79F300D1124240F5B
:1013B000351F820F931FFC0180810F900F900F90BB
:1013C0000F90DF91CF910895CF93DF9300D000D09D
:1013D00000D0CDB7DEB79C838B837E836D831A826A
:1013E000198217C02B813C8149815A8165E1649F34
:1013F000C001659F900D1124280F391F8D819E819A
:10140000820F931FFC01108289819A8101969A8331
:10141000898389819A810C972CF3000026960FB658
:10142000F894DEBF0FBECDBFDF91CF910895CF936B
:10143000DF9300D000D000D0CDB7DEB79C838B8384
:101440007E836D831A82198218C02B813C81498169
:101450005A8165E1649FC001659F900D1124280F9A
:10146000391F8D819E81820F931F21E0FC01208313
:1014700089819A8101969A83898389819A810C97BF
:1014800024F3000026960FB6F894DEBF0FBECDBF42
:10149000DF91CF910895CF93DF93CDB7DEB7289733
:1014A0000FB6F894DEBF0FBECDBF9E838D837887C5
:1014B0006F838F8198859A83898336C01C821B82B3
:1014C0002AC089819A8101964D815E816B817C81E0
:1014D000E5E1E69F9001E79F300D1124240F351FB1
:1014E000820F931FFC0160812D813E814B815C81C5
:1014F00075E1749FC001759F900D1124280F391F4D
:1015000089819A81820F931FFC0160838B819C816A
:1015100001969C838B838B819C810C9794F28981AB
:101520009A8101969A83898389819A810196459748
:101530002CF28D819E8164E170E046DF00002896E8
:101540000FB6F894DEBF0FBECDBFDF91CF910895E7
:10155000CF93DF9300D000D000D0CDB7DEB79C830F
:101560008B837E836D831A8219821BC02B813C8101
:1015700049815A8165E1649FC001659F900D1124E6
:10158000280F391F8D819E81820F931FFC0180815E
:10159000882311F480E00AC089819A8101969A8398
:1015A000898389819A810C970CF381E026960FB686
:1015B000F894DEBF0FBECDBFDF91CF910895CF93DA
:1015C000DF9300D000D000D0CDB7DEB79C838B83F3
:1015D0007E836D831A8219821BC02B813C814981D5
:1015E0005A8165E1649FC001659F900D1124280F09
:1015F000391F8D819E81820F931FFC01808188237A
:1016000011F480E00AC089819A8101969A838983C6
:1016100089819A810C970CF381E026960FB6F89495
:10162000DEBF0FBECDBFDF91CF910895CF93DF9383
:1016300000D000D0CDB7DEB79A8389837C836B83DB
:101640008B819C81FC01808191819923C4F08B81E5
:101650009C81FC01808191810C978CF48B819C8111
:10166000FC0182819381992354F08B819C81FC0140
:101670008281938145971CF481E090E002C080E074
:1016800090E00F900F900F900F90DF91CF91089501
:10169000CF93DF93CDB7DEB72A970FB6F894DEBFAE
:1016A0000FBECDBF98878F837A8769871A82198288
:1016B00025C029813A8189859A85B901A7DCDC0199
:1016C000CB018B839C83AD83BE839E012D5F3F4FF7
:1016D0008F819885B901AADF882349F09E012D5F8B
:1016E0003F4F8F819885B90146DE882311F080E055
:1016F0000AC089819A8101969A83898389819A8116
:101700000497B8F281E02A960FB6F894DEBF0FBEB8
:10171000CDBFDF91CF910895CF93DF93CDB7DEB7E3
:101720002A970FB6F894DEBF0FBECDBF98878F8380
:101730007A8769871A82198231C029813A8189851D
:101740009A85B90163DCDC01CB018B839C83AD837B
:10175000BE838D819E811816190614F081E023C086
:101760008D819E8101979E838D839E012D5F3F4FCA
:101770008F819885B9015ADF882359F09E012D5F2A
:101780003F4F8F819885B901F6DD882311F081E004
:101790000AC089819A8101969A83898389819A8175
:1017A000049758F280E02A960FB6F894DEBF0FBE79
:1017B000CDBFDF91CF910895CF93DF9300D000D0BC
:1017C000CDB7DEB79A8389837C836B838B819C81C1
:1017D0008CDC2B813C8189819A81B90159DF882376
:1017E00021F48B819C8181DC01C000000F900F905F
:1017F0000F900F90DF91CF910895CF93DF9300D09A
:1018000000D0CDB7DEB79A8389837C836B838B81CD
:101810009C81A7DC2B813C8189819A81B90138DFC9
:10182000882321F48B819C81C4DC01C000000F90CF
:101830000F900F900F90DF91CF910895CF93DF938A
:1018400000D000D0CDB7DEB79A8389837C836B83C9
:101850008B819C81AEDC2B813C8189819A81B9018D
:1018600017DF882321F48B819C817BDC01C0000081
:101870000F900F900F900F90DF91CF910895CF931D
:10188000DF9300D000D0CDB7DEB79A8389837C8305
:101890006B838B819C81F7DB2B813C8189819A81D1
:1018A000B901F6DE882321F48B819C8105DC01C01F
:1018B00000000F900F900F900F90DF91CF9108953F
:1018C000CF93DF9300D000D0CDB7DEB79A83898362
:1018D0007C836B838B819C81EFDB2B813C818981B5
:1018E0009A81B901D5DE882321F48B819C81CBDBE1
:1018F00001C000000F900F900F900F90DF91CF91DB
:101900000895CF93DF93CDB7DEB72A970FB6F8943B
:10191000DEBF0FBECDBF98878F837A8769871A8213
:1019200019822DC029813A8189859A85B9016EDB9A
:10193000DC01CB018B839C83AD83BE839E012D5F35
:101940003F4F8F819885B90171DE882399F06B81B3
:101950007C818D819E814F815885E5E1E69F9001D4
:10196000E79F300D1124240F351F820F931F21E0B4
:10197000FC01208389819A8101969A8389838981D8
:101980009A81049778F200002A960FB6F894DEBF89
:101990000FBECDBFDF91CF910895CF93DF9300D0DD
:1019A0001F92CDB7DEB78B838B81809367041A8239
:1019B00019828B81882F90E08130910561F082300F
:1019C000910559F0892B09F014C089819A8118D9A1
:1019D000809348030EC078D20CC090914703809149
:1019E0004803891728F480914703682F80E0C8D8FE
:1019F000000000000F900F900F90DF91CF9108959D
:101A0000CF93DF9300D01F92CDB7DEB79B838A833D
:101A100081E089838A819B81892B81F489818F5F11
:101A2000898311C089818F5F89838A819B812AE0A4
:101A300030E0B90105D7CB019B838A838A819B81E2
:101A4000181619067CF38981882F90E00F900F906B
:101A50000F90DF91CF910895CF93DF9300D000D006
:101A600000D0CDB7DEB79A8389837C836B835E8396
:101A70004D838D819E8101979E838D838D819E8173
:101A80002B813C81820F931FFC01108289819A81F6
:101A9000892B61F58D819E8101979E838D838D8138
:101AA0009E812B813C81820F931F20E3FC012083C8
:101AB00023C08D819E8101979E838D838D819E8120
:101AC0002B813C81280F391F89819A814AE050E09F
:101AD000BA01B6D6805DF901808389819A812AE0B6
:101AE00030E0B901ADD6CB019A83898389819A818F
:101AF00018161906F4F2000026960FB6F894DEBF09
:101B00000FBECDBFDF91CF910895EF92FF920F935B
:101B10001F93CF93DF93CDB7DEB72E970FB6F89410
:101B2000DEBF0FBECDBF0DB71EB78DB79EB77C0110
:101B30000E946C0361E089E091E00E949B046AE0EE
:101B400080E00E94BD0461E081E191E00E949B047D
:101B500064E180E00E94BD0480914803882F90E0FA
:101B60004FDF9A83898389819A819C0121503109B1
:101B70003C832B832DB73EB7281B390B0FB6F89447
:101B80003EBF0FBE2DBF8DB79EB701969E838D833E
:101B900049815A812D813E8180914803882F90E0B0
:101BA000B9015ADF8D819E8161E00E949B046EE144
:101BB00080E00E94BD0461E08EE191E00E949B0400
:101BC00080914903882F90E01BDF98878F838F8156
:101BD00098859C01215031093A872987EDB7FEB7D6
:101BE000E81BF90B0FB6F894FEBF0FBEEDBF8DB723
:101BF0009EB701969C878B874F8158852B853C85A6
:101C000080914903882F90E0B90126DF68E280E0E7
:101C10000E94BD048B859C8561E00E949B040E940C
:101C2000D00489E290E0FC01808180958D878091CD
:101C30004A03982F90958D8589238E878E85882FCE
:101C400090E0092E000CAA0BBB0B41E050E026E00F
:101C500030E0841B950B28173907A0F08A5B9F4F53
:101C6000FC0101C6809149038F5F809349030AC03C
:101C700081E093DE07C0809149038150809349033E
:101C800001C000008D8580934A030FB6F894FEBE14
:101C90000FBEEDBE00000FB6F8941EBF0FBE0DBF05
:101CA0002E960FB6F894DEBF0FBECDBFDF91CF9159
:101CB0001F910F91FF90EF900895EF92FF920F9375
:101CC0001F93CF93DF93CDB7DEB72E970FB6F8945F
:101CD000DEBF0FBECDBF0DB71EB78DB79EB77C015F
:101CE0000E946C0361E08BE291E00E949B046AE039
:101CF00080E00E94BD0480914703882F90E080DE41
:101D00009A83898389819A819C01215031093C837E
:101D10002B832DB73EB7281B390B0FB6F8943EBF67
:101D20000FBE2DBF8DB79EB701969E838D834981CF
:101D30005A812D813E8180914703882F90E0B9011F
:101D40008BDE8D819E8161E00E949B0464E180E0D6
:101D50000E94BD0461E081E191E00E949B046EE17C
:101D600080E00E94BD0480914803882F90E048DE07
:101D700098878F838F8198859C01215031093A87FC
:101D80002987EDB7FEB7E81BF90B0FB6F894FEBF35
:101D90000FBEEDBF8DB79EB701969C878B874F8195
:101DA00058852B853C8580914803882F90E0B901A8
:101DB00053DE8B859C8561E00E949B0468E280E095
:101DC0000E94BD049091470380914803891728F42D
:101DD00061E088E391E00E949B040E94D00489E2C4
:101DE00090E0FC01808180958D8780914B03982F36
:101DF00090958D8589238E878E85882F90E0892BFD
:101E000019F080E0CADD01C000008D8580934B038E
:101E10000FB6F894FEBE0FBEEDBE00000FB6F894EC
:101E20001EBF0FBE0DBF2E960FB6F894DEBF0FBEBD
:101E3000CDBFDF91CF911F910F91FF90EF9008954B
:101E4000CF93DF93CDB7DEB72A970FB6F894DEBFF6
:101E50000FBECDBF9E838D8378876F835A87498756
:101E60001A82198223C01C821B8217C039858D817A
:101E7000982F990F990F8981292F280F8F81982FDB
:101E8000990F990F8B81890F432F622F0E948E0328
:101E90008B819C8101969C838B838B819C81049791
:101EA0002CF389819A8101969A83898389819A8109
:101EB0000497CCF200002A960FB6F894DEBF0FBE4E
:101EC000CDBFDF91CF910895CF93DF93CDB7DEB72C
:101ED0001092680480914903882F90E02BD51092CE
:101EE00047030000DF91CF910895CF93DF93CDB7E3
:101EF000DEB7C155D1090FB6F894DEBF0FBECDBF16
:101F00008AE090E09C8F8B8F80914C0390914D03E1
:101F1000019790934D0380934C0380914C039091D3
:101F20004D03181619060CF42AC380914E03882F0E
:101F300090E08230910509F42AC1833091052CF498
:101F4000009779F0019729F1CFC18430910509F408
:101F500091C1843091050CF424C1059709F4BAC1EC
:101F6000C3C1CE01CE964DD984E1FE01FE96AFE409
:101F7000B3E001900D928A95E1F7109247038B8DA3
:101F80009C8D90934D0380934C0381E080934E038E
:101F9000ABC189E290E0FC01808180958D8F8D8DB1
:101FA000882F90E0092E000CAA0BBB0B41E050E0FB
:101FB00026E030E0841B950B2817390770F1835B0E
:101FC0009F4FFC0150C46FE473E083E693E057DC5D
:101FD00024C06FE473E083E693E0EEDB1EC06FE4A1
:101FE00073E083E693E02ADC18C06FE473E083E6D5
:101FF00093E066DC12C08FE493E02CD86FE473E0CA
:1020000083E693E089DB8823B1F307C06FE473E0D4
:1020100083E693E0F2DB01C000008D8D80935F04C6
:1020200090915F048D8D981749F48D8D853031F432
:10203000809160048F5F8093600402C010926004FE
:102040006FE473E083E693E067DB882309F488C0DC
:102050006FE473E083E693E01BDB882309F472C02E
:102060006FE473E083E693E04CDC82E080934E0300
:102070001A82198221C089819A81BC0183E693E08A
:1020800067DA8823A1F089819A8190936204809312
:10209000610486E08093080183E080934E03998178
:1020A00080914703890F8F5F8093470309C089811F
:1020B0009A8101969A83898389819A814597D8F27A
:1020C00080916304909164040196909364048093DA
:1020D00063041092660410926504CE01CE9691D8E6
:1020E00084E1FE01FE96AFE4B3E001900D928A9583
:1020F000E1F780914E038330F1F0809160048530E8
:1021000060F08B8D9C8D99230CF4019695958795A5
:1021100090934D0380934C03E7C02B8D3C8DC901F8
:10212000880F991F880F991F820F931F90934D035B
:1021300080934C03D9C08B8D9C8D90934D038093DD
:102140004C03D2C084E080934E031092620410923C
:1021500061048B8D9C8D90934D0380934C03C4C080
:102160008FE493E00E942A088091650490916604B0
:10217000019690936604809365048B8D9C8D90935B
:102180004D0380934C0382E080934E03ADC08B8D52
:102190009C8D90934D0380934C0381E080934E037C
:1021A000A3C08091080181508093080180910801AB
:1021B0008170882349F08091610490916204BC0190
:1021C00083E693E001D908C0809161049091620494
:1021D000BC0183E693E02BD980910801882339F074
:1021E0008B8D9C8D90934D0380934C037DC080918B
:1021F000610490916204BC0183E693E04CD981E0D4
:1022000080934E031C821B821AC08B819C81BC016F
:1022100083E693E09DD9882369F08B819C8190931C
:1022200062048093610486E08093080183E08093D8
:102230004E0309C08B819C8101969C838B838B818B
:102240009C81459710F380914E03833061F02B8D74
:102250003C8DC901880F991F820F931F90934D03E6
:1022600080934C0341C08B8D9C8D90934D03809344
:102270004C033AC0809161049091620445973CF50B
:102280008091610490916204BC0183E693E097D948
:102290008823E9F460E070E083E693E095D860E09D
:1022A00070E083E693E0F7D8809161049091620436
:1022B000019690936204809361048B8D9C8D909322
:1022C0004D0380934C0385E080934E030DC082E064
:1022D00064DB0AC08B8D9C8D90934D0380934C03DF
:1022E00084E080934E0300000E946C0380914E03B3
:1022F000853009F51E821D8219C018861F820DC007
:102300002F8138858D819E8141E050E0B90198DDB3
:102310008F819885019698878F838F8198854597BF
:102320007CF38D819E8101969E838D838D819E811C
:102330000C971CF321C180914E03813009F091C0AC
:102340001A86198629C01C861B861DC089859A8518
:1023500045E1489F9001499F300D11248B859C8554
:10236000820F931F8D599C4FFC018081482F50E0B4
:102370002B853C8589859A85B90162DD8B859C8595
:1023800001969C878B878B859C854597FCF2898578
:102390009A8501969A87898789859A850C979CF2F8
:1023A0001E861D861EC08D859E85BC018FE493E030
:1023B0000E940608DC01CB018AAB9BABACABBDAB8A
:1023C0008CA99DA9459744F42CA93DA98AA99BA94C
:1023D00041E050E0B90134DD8D859E8501969E87F0
:1023E0008D878D859E850497F4F284E1EFE4F3E018
:1023F000DE015E9601900D928A95E1F704C0CE0150
:102400004E960E942A08CE014E96BC0183E693E0C8
:1024100083D98823A1F3188A1F861EC02F85388987
:10242000CE014E96B9010E940608DC01CB018EABAD
:102430009FABA8AFB9AF88AD99AD459744F428AD2F
:1024400039AD8EA99FA941E050E0B901F9DC8F8533
:1024500098890196988B8F878F8598890497F4F2D5
:102460008BC080914E03823009F056C01A8A198AB7
:1024700029C01C8A1B8A1DC089899A8945E1489F09
:102480009001499F300D11248B899C89820F931FE5
:102490008D599C4FFC018081482F50E02B893C894D
:1024A00089899A89B901CCDC8B899C8901969C8B9E
:1024B0008B8B8B899C894597FCF289899A89019637
:1024C0009A8B898B89899A890C979CF21E8A1D8A1E
:1024D0001EC08D899E89BC018FE493E00E9406088E
:1024E000DC01CB018AAF9BAFACAFBDAF8CAD9DAD76
:1024F000459744F42CAD3DAD8AAD9BAD41E050E035
:10250000B9019EDC8D899E8901969E8B8D8B8D896C
:102510009E890497F4F230C0188E1F8A29C01A8E43
:10252000198E1DC08F89988D45E1489F9001499F64
:10253000300D1124898D9A8D820F931F8D599C4FD8
:10254000FC018081482F50E0298D3A8D8F89988D2C
:10255000B90176DC898D9A8D01969A8F898F898D44
:102560009A8D4597FCF28F89988D0196988F8F8B65
:102570008F89988D0C979CF20E94D00401C00000B6
:10258000CF5ADF4F0FB6F894DEBF0FBECDBFDF913D
:10259000CF910895CF93DF93CDB7DEB780916704D5
:1025A000882F90E08130910541F08230910539F01B
:1025B000892B09F006C0A9DA04C097DC02C07DDBD4
:1025C00000000000DF91CF910895CF93DF93CDB746
:1025D000DEB78AE290E02FEFFC01208389E290E0F1
:1025E0002FEFFC0120830E94F7010E946C036AE038
:1025F00070E080E090E00E94EF040E941D05CADFB9
:102600000000809142038823E1F310924203F7CF48
:102610002FD008F481E0089557D088F09F5790F0AC
:10262000B92F9927B751A0F0D1F0660F771F881FF7
:10263000991F1AF0BA95C9F712C0B13081F05ED077
:10264000B1E008955BC0672F782F8827B85F39F015
:10265000B93FCCF3869577956795B395D9F73EF456
:1026600090958095709561957F4F8F4F9F4F0895FE
:10267000990F0008550FAA0BE0E8FEEF1616170693
:10268000E807F907C0F012161306E407F50798F0FB
:10269000621B730B840B950B39F40A2661F0232B14
:1026A000242B252B21F408950A2609F4A140A69590
:1026B0008FEF811D811D089557FD9058440F551FC0
:1026C00059F05F3F71F04795880F97FB991F61F0B4
:1026D0009F3F79F087950895121613061406551F2B
:1026E000F2CF4695F1DF08C0161617061806991F97
:1026F000F1CF86957105610508940895E894BB278C
:1027000066277727CB0197F90895B2DF08F48FEF9A
:1027100008950BD078C069D028F06ED018F09523BA
:1027200009F05AC05FC01124EACFC6DFA0F3959F1D
:10273000D1F3950F50E0551F629FF001729FBB27A8
:10274000F00DB11D639FAA27F00DB11DAA1F649F54
:102750006627B00DA11D661F829F2227B00DA11D07
:10276000621F739FB00DA11D621F839FA00D611D8D
:10277000221F749F3327A00D611D231F849F600DAE
:10278000211D822F762F6A2F11249F5750408AF0E7
:10279000E1F088234AF0EE0FFF1FBB1F661F771F73
:1027A000881F91505040A9F79E3F510570F014C00A
:1027B000A6CF5F3FECF3983EDCF38695779567955F
:1027C000B795F795E7959F5FC1F7FE2B880F911D91
:1027D0009695879597F9089597F99F6780E870E037
:1027E00060E008959FEF80EC089500240A94161687
:1027F000170618060906089500240A9412161306EF
:10280000140605060895092E0394000C11F488237C
:1028100052F0BB0F40F4BF2B11F460FF04C06F5F98
:102820007F4F8F4F9F4F0895991B79E004C0991FE8
:10283000961708F0961B881F7A95C9F7809508951A
:1028400097FB072E16F4009406D077FD08D014D01D
:1028500007FC05D03EF4909581959F4F08957095A3
:1028600061957F4F0895EE0FFF1F0024001C0BBEE3
:102870000790F691E02D0994AA1BBB1B51E107C0FC
:10288000AA1FBB1FA617B70710F0A61BB70B881F00
:10289000991F5A95A9F780959095BC01CD0108958F
:1028A0008F929F92AF92BF92CF92DF92EF92FF9260
:1028B000CF93DF93EC01688179818A819B816115D7
:1028C00071058105910521F464E279ED8BE597E0CE
:1028D0002DE133EF41E050E038D049015A019B012E
:1028E000AC01A7EAB1E44DD06B017C01ACEEB4EFD2
:1028F000A501940152D0DC01CB018C0D9D1DAE1DB4
:10290000BF1DB7FF03C00197A109B0488883998311
:10291000AA83BB839F77DF91CF91FF90EF90DF90E9
:10292000CF90BF90AF909F908F900895B9CF80E0E7
:1029300091E0B6CFA0E0B0E0809300019093010158
:10294000A0930201B09303010895052E97FB16F49E
:1029500000940FD057FD05D024D007FC02D046F4D8
:1029600008C050954095309521953F4F4F4F5F4F90
:10297000089590958095709561957F4F8F4F9F4FEB
:10298000089531D0A59F900DB49F900DA49F800D08
:10299000911D11240895B7FFF4CFF3DF821B930B31
:1029A0000895A1E21A2EAA1BBB1BFD010DC0AA1F90
:1029B000BB1FEE1FFF1FA217B307E407F50720F0A8
:1029C000A21BB30BE40BF50B661F771F881F991F23
:1029D0001A9469F760957095809590959B01AC016C
:1029E000BD01CF010895A29FB001B39FC001A39F75
:1029F000700D811D1124911DB29F700D811D112438
:082A0000911D0895F894FFCF29
:102A0800010000000100000001546574726973211F
:102A180000486967682073636F72653A20005261E5
:102A28006E646F6D20736565643A00596F75722026
:102A380073636F72653A20004E657720686967682E
:082A48002073636F7265210029
:00000001FF
