S0180000616368656E3131355F70726F6A6563742E7372656320
S113000045C0000060C000005EC000005CC000008D
S11300105AC0000058C0000056C0000054C0000080
S113002052C0000050C000004EC000004CC0000090
S11300304AC0000048C0000046C0000044C00000A0
S113004042C0000040C000003EC000003CC00000B0
S11300503AC0000038C0000036C0000034C00000C0
S113006032C0000030C000002EC000002CC00000D0
S11300702AC0000028C0000026C0000024C00000E0
S113008022C0000020C000001EC0000011241FBEBA
S1130090CFEFD0E4DEBFCDBF11E0A0E0B1E0E4ECEF
S11300A0F4E000E00BBF02C007900D92A030B1074E
S11300B0D9F721E0A0E0B1E001C01D92A030B20761
S11300C0E1F7B8D1FDC19CCFCF93DF93CDB7DEB7B5
S11300D028970FB6F894DEBF0FBECDBF9E838D83E5
S11300E078876F838D819E81FC01208131818F818E
S11300F09885FC0180819181820F931F9A83898363
S11301008D819E81FC01228133818F819885FC0140
S113011082819381820F931F9C838B8389819A812F
S1130120AB81BC81BC01CD0128960FB6F894DEBF2B
S11301300FBECDBFDF91CF910895CF93DF9300D051
S113014000D000D0CDB7DEB79A8389834B835C831C
S11301506D837E8329813A818B819C81AD81BE81AF
S1130160F90180839183A283B38389819A81FC01FD
S11301701582148289819A8121E030E0FC01378361
S1130180268389819A81FC011186108689819A814E
S1130190FC011386128689819A81FC0115861486D6
S11301A089819A812FEF3FEFFC0137872687898168
S11301B09A8121E030E0FC01318B208B89819A8186
S11301C02FEF3FEFFC01338B228B89819A81269696
S11301D00FB6F894DEBF0FBECDBFDF91CF91089567
S11301E0CF93DF9300D000D0CDB7DEB79A83898355
S11301F07C836B838B819C810196880F991F880F68
S1130200991F29813A81280F391F89819A81B9015F
S11302105BDFDC01CB01BC01CD010F900F900F908F
S11302200F90DF91CF910895CF93DF9300D0CDB796
S1130230DEB79A83898389819A81FC0182819381C3
S113024001979C0189819A81FC01338322830000F8
S11302500F900F90DF91CF910895CF93DF9300D04B
S113026000D0CDB7DEB79A8389837C836B838B817F
S11302709C81FC01808191819923C4F08B819C81B4
S1130280FC018081918108978CF48B819C81FC0115
S113029082819381992354F08B819C81FC0182811A
S11302A0938140971CF481E090E002C080E090E0EC
S11302B00F900F900F900F90DF91CF910895CF93EF
S11302C0DF9300D000D0CDB7DEB79A8389837C83D7
S11302D06B838B819C81FC01208131818B819C818A
S11302E0FC018281938149815A8122953295307F24
S11302F03227207F3227240F351F820F931FFC01E2
S113030080810F900F900F900F90DF91CF910895FF
S1130310CF93DF93CDB7DEB72A970FB6F894DEBF3D
S11303200FBECDBF98878F837A8769871A82198217
S113033027C029813A8189859A85B90151DFDC0179
S1130340CB018B839C83AD83BE838D819E81892B5E
S113035011F481E01AC08D819E8101979E838D8363
S11303609E012D5F3F4F8F819885B901A8DF8823B7
S113037011F081E00AC089819A8101969A83898368
S113038089819A810497A8F280E02A960FB6F8949E
S1130390DEBF0FBECDBFDF91CF910895CF93DF9322
S11303A0CDB7DEB72A970FB6F894DEBF0FBECDBF28
S11303B098878F837A8769871A8219822DC0298149
S11303C03A8189859A85B9010BDFDC01CB018B83E6
S11303D09C83AD83BE839E012D5F3F4FCE01079664
S11303E0B9013BDF882399F04F8158852B813C81EB
S11303F08D819E8122953295307F3227207F32274E
S1130400240F351F820F931F21E0FC012083898173
S11304109A8101969A83898389819A81049778F2D3
S113042000002A960FB6F894DEBF0FBECDBFDF9151
S1130430CF910895CF93DF93CDB7DEB7CA59D109D1
S11304400FB6F894DEBF0FBECDBF82E090E09C8370
S11304508B8382E090E09E838D839E0129573F4FDA
S11304608B819C81AD81BE81AC01BD01C90165DE7A
S11304701A82198209C0CE0189579F4FD5DE89811E
S11304809A8101969A8389839E0129573F4FCE0111
S11304900796B9013DDF882371F39E0129573F4F29
S11304A0CE010796B9017ADF00000000C656DF4F7F
S11304B00FB6F894DEBF0FBECDBFDF91CF91089584
S10704C0F894FFCFDA
S9030000FC
